{
    "contractName": "Land",
    "abi": [
        {
            "inputs": [],
            "stateMutability": "nonpayable",
            "type": "constructor"
        },
        {
            "anonymous": false,
            "inputs": [
                {
                    "indexed": true,
                    "internalType": "address",
                    "name": "owner",
                    "type": "address"
                },
                {
                    "indexed": true,
                    "internalType": "address",
                    "name": "approved",
                    "type": "address"
                },
                {
                    "indexed": true,
                    "internalType": "uint256",
                    "name": "tokenId",
                    "type": "uint256"
                }
            ],
            "name": "Approval",
            "type": "event"
        },
        {
            "anonymous": false,
            "inputs": [
                {
                    "indexed": true,
                    "internalType": "address",
                    "name": "owner",
                    "type": "address"
                },
                {
                    "indexed": true,
                    "internalType": "address",
                    "name": "operator",
                    "type": "address"
                },
                {
                    "indexed": false,
                    "internalType": "bool",
                    "name": "approved",
                    "type": "bool"
                }
            ],
            "name": "ApprovalForAll",
            "type": "event"
        },
        {
            "anonymous": false,
            "inputs": [
                {
                    "indexed": false,
                    "internalType": "uint256",
                    "name": "landId",
                    "type": "uint256"
                },
                {
                    "indexed": false,
                    "internalType": "string",
                    "name": "data",
                    "type": "string"
                }
            ],
            "name": "MetadataUpdate",
            "type": "event"
        },
        {
            "anonymous": false,
            "inputs": [
                {
                    "indexed": false,
                    "internalType": "address",
                    "name": "_minter",
                    "type": "address"
                },
                {
                    "indexed": false,
                    "internalType": "bool",
                    "name": "_isMinter",
                    "type": "bool"
                }
            ],
            "name": "MinterUpdate",
            "type": "event"
        },
        {
            "anonymous": false,
            "inputs": [
                {
                    "indexed": true,
                    "internalType": "address",
                    "name": "previousOwner",
                    "type": "address"
                },
                {
                    "indexed": true,
                    "internalType": "address",
                    "name": "newOwner",
                    "type": "address"
                }
            ],
            "name": "OwnershipTransferred",
            "type": "event"
        },
        {
            "anonymous": false,
            "inputs": [
                {
                    "indexed": false,
                    "internalType": "uint256",
                    "name": "tokenId",
                    "type": "uint256"
                },
                {
                    "indexed": false,
                    "internalType": "address",
                    "name": "operator",
                    "type": "address"
                }
            ],
            "name": "SetOperator",
            "type": "event"
        },
        {
            "anonymous": false,
            "inputs": [
                {
                    "indexed": false,
                    "internalType": "address",
                    "name": "owner",
                    "type": "address"
                },
                {
                    "indexed": false,
                    "internalType": "address",
                    "name": "operator",
                    "type": "address"
                },
                {
                    "indexed": false,
                    "internalType": "bool",
                    "name": "approved",
                    "type": "bool"
                }
            ],
            "name": "SetOperatorUpdates",
            "type": "event"
        },
        {
            "anonymous": false,
            "inputs": [
                {
                    "indexed": true,
                    "internalType": "address",
                    "name": "from",
                    "type": "address"
                },
                {
                    "indexed": true,
                    "internalType": "address",
                    "name": "to",
                    "type": "address"
                },
                {
                    "indexed": true,
                    "internalType": "uint256",
                    "name": "tokenId",
                    "type": "uint256"
                }
            ],
            "name": "Transfer",
            "type": "event"
        },
        {
            "inputs": [],
            "name": "HEIGHT",
            "outputs": [
                {
                    "internalType": "uint256",
                    "name": "",
                    "type": "uint256"
                }
            ],
            "stateMutability": "view",
            "type": "function"
        },
        {
            "inputs": [],
            "name": "WIDTH",
            "outputs": [
                {
                    "internalType": "uint256",
                    "name": "",
                    "type": "uint256"
                }
            ],
            "stateMutability": "view",
            "type": "function"
        },
        {
            "inputs": [
                {
                    "internalType": "address",
                    "name": "to",
                    "type": "address"
                },
                {
                    "internalType": "uint256",
                    "name": "tokenId",
                    "type": "uint256"
                }
            ],
            "name": "approve",
            "outputs": [],
            "stateMutability": "nonpayable",
            "type": "function"
        },
        {
            "inputs": [
                {
                    "internalType": "address",
                    "name": "owner",
                    "type": "address"
                }
            ],
            "name": "balanceOf",
            "outputs": [
                {
                    "internalType": "uint256",
                    "name": "",
                    "type": "uint256"
                }
            ],
            "stateMutability": "view",
            "type": "function"
        },
        {
            "inputs": [],
            "name": "baseURI",
            "outputs": [
                {
                    "internalType": "string",
                    "name": "",
                    "type": "string"
                }
            ],
            "stateMutability": "view",
            "type": "function"
        },
        {
            "inputs": [
                {
                    "internalType": "address",
                    "name": "user",
                    "type": "address"
                },
                {
                    "internalType": "uint256[]",
                    "name": "landIds",
                    "type": "uint256[]"
                }
            ],
            "name": "batchCreate",
            "outputs": [],
            "stateMutability": "nonpayable",
            "type": "function"
        },
        {
            "inputs": [
                {
                    "internalType": "address",
                    "name": "user",
                    "type": "address"
                },
                {
                    "internalType": "uint256",
                    "name": "landId",
                    "type": "uint256"
                }
            ],
            "name": "create",
            "outputs": [],
            "stateMutability": "nonpayable",
            "type": "function"
        },
        {
            "inputs": [
                {
                    "internalType": "uint256",
                    "name": "tokenId",
                    "type": "uint256"
                }
            ],
            "name": "getApproved",
            "outputs": [
                {
                    "internalType": "address",
                    "name": "",
                    "type": "address"
                }
            ],
            "stateMutability": "view",
            "type": "function"
        },
        {
            "inputs": [
                {
                    "internalType": "address",
                    "name": "owner",
                    "type": "address"
                },
                {
                    "internalType": "address",
                    "name": "operator",
                    "type": "address"
                }
            ],
            "name": "isApprovedForAll",
            "outputs": [
                {
                    "internalType": "bool",
                    "name": "",
                    "type": "bool"
                }
            ],
            "stateMutability": "view",
            "type": "function"
        },
        {
            "inputs": [
                {
                    "internalType": "address",
                    "name": "_operator",
                    "type": "address"
                },
                {
                    "internalType": "uint256",
                    "name": "tokenId",
                    "type": "uint256"
                }
            ],
            "name": "isOperator",
            "outputs": [
                {
                    "internalType": "bool",
                    "name": "",
                    "type": "bool"
                }
            ],
            "stateMutability": "view",
            "type": "function"
        },
        {
            "inputs": [
                {
                    "internalType": "address",
                    "name": "owner",
                    "type": "address"
                },
                {
                    "internalType": "address",
                    "name": "_operator",
                    "type": "address"
                }
            ],
            "name": "isOperatorUpdates",
            "outputs": [
                {
                    "internalType": "bool",
                    "name": "",
                    "type": "bool"
                }
            ],
            "stateMutability": "view",
            "type": "function"
        },
        {
            "inputs": [
                {
                    "internalType": "uint256",
                    "name": "",
                    "type": "uint256"
                }
            ],
            "name": "metadata",
            "outputs": [
                {
                    "internalType": "string",
                    "name": "",
                    "type": "string"
                }
            ],
            "stateMutability": "view",
            "type": "function"
        },
        {
            "inputs": [],
            "name": "name",
            "outputs": [
                {
                    "internalType": "string",
                    "name": "",
                    "type": "string"
                }
            ],
            "stateMutability": "view",
            "type": "function"
        },
        {
            "inputs": [],
            "name": "owner",
            "outputs": [
                {
                    "internalType": "address",
                    "name": "",
                    "type": "address"
                }
            ],
            "stateMutability": "view",
            "type": "function"
        },
        {
            "inputs": [
                {
                    "internalType": "uint256",
                    "name": "tokenId",
                    "type": "uint256"
                }
            ],
            "name": "ownerOf",
            "outputs": [
                {
                    "internalType": "address",
                    "name": "",
                    "type": "address"
                }
            ],
            "stateMutability": "view",
            "type": "function"
        },
        {
            "inputs": [],
            "name": "renounceOwnership",
            "outputs": [],
            "stateMutability": "nonpayable",
            "type": "function"
        },
        {
            "inputs": [
                {
                    "internalType": "address",
                    "name": "from",
                    "type": "address"
                },
                {
                    "internalType": "address",
                    "name": "to",
                    "type": "address"
                },
                {
                    "internalType": "uint256",
                    "name": "tokenId",
                    "type": "uint256"
                }
            ],
            "name": "safeTransferFrom",
            "outputs": [],
            "stateMutability": "nonpayable",
            "type": "function"
        },
        {
            "inputs": [
                {
                    "internalType": "address",
                    "name": "from",
                    "type": "address"
                },
                {
                    "internalType": "address",
                    "name": "to",
                    "type": "address"
                },
                {
                    "internalType": "uint256",
                    "name": "tokenId",
                    "type": "uint256"
                },
                {
                    "internalType": "bytes",
                    "name": "_data",
                    "type": "bytes"
                }
            ],
            "name": "safeTransferFrom",
            "outputs": [],
            "stateMutability": "nonpayable",
            "type": "function"
        },
        {
            "inputs": [
                {
                    "internalType": "address",
                    "name": "operator",
                    "type": "address"
                },
                {
                    "internalType": "bool",
                    "name": "approved",
                    "type": "bool"
                }
            ],
            "name": "setApprovalForAll",
            "outputs": [],
            "stateMutability": "nonpayable",
            "type": "function"
        },
        {
            "inputs": [
                {
                    "internalType": "string",
                    "name": "__baseURI",
                    "type": "string"
                }
            ],
            "name": "setBaseURI",
            "outputs": [],
            "stateMutability": "nonpayable",
            "type": "function"
        },
        {
            "inputs": [
                {
                    "internalType": "uint256[]",
                    "name": "tokenIds",
                    "type": "uint256[]"
                },
                {
                    "internalType": "address",
                    "name": "_operator",
                    "type": "address"
                }
            ],
            "name": "setManyOperator",
            "outputs": [],
            "stateMutability": "nonpayable",
            "type": "function"
        },
        {
            "inputs": [
                {
                    "internalType": "uint256",
                    "name": "landId",
                    "type": "uint256"
                },
                {
                    "internalType": "string",
                    "name": "data",
                    "type": "string"
                }
            ],
            "name": "setMetadata",
            "outputs": [],
            "stateMutability": "nonpayable",
            "type": "function"
        },
        {
            "inputs": [
                {
                    "internalType": "address",
                    "name": "_minter",
                    "type": "address"
                },
                {
                    "internalType": "bool",
                    "name": "_isMinter",
                    "type": "bool"
                }
            ],
            "name": "setMinter",
            "outputs": [],
            "stateMutability": "nonpayable",
            "type": "function"
        },
        {
            "inputs": [
                {
                    "internalType": "uint256",
                    "name": "tokenId",
                    "type": "uint256"
                },
                {
                    "internalType": "address",
                    "name": "_operator",
                    "type": "address"
                }
            ],
            "name": "setOperator",
            "outputs": [],
            "stateMutability": "nonpayable",
            "type": "function"
        },
        {
            "inputs": [
                {
                    "internalType": "address",
                    "name": "_operator",
                    "type": "address"
                },
                {
                    "internalType": "bool",
                    "name": "approved",
                    "type": "bool"
                }
            ],
            "name": "setOperatorUpdates",
            "outputs": [],
            "stateMutability": "nonpayable",
            "type": "function"
        },
        {
            "inputs": [
                {
                    "internalType": "bytes4",
                    "name": "interfaceId",
                    "type": "bytes4"
                }
            ],
            "name": "supportsInterface",
            "outputs": [
                {
                    "internalType": "bool",
                    "name": "",
                    "type": "bool"
                }
            ],
            "stateMutability": "view",
            "type": "function"
        },
        {
            "inputs": [],
            "name": "symbol",
            "outputs": [
                {
                    "internalType": "string",
                    "name": "",
                    "type": "string"
                }
            ],
            "stateMutability": "view",
            "type": "function"
        },
        {
            "inputs": [
                {
                    "internalType": "uint256",
                    "name": "_tokenId",
                    "type": "uint256"
                }
            ],
            "name": "tokenURI",
            "outputs": [
                {
                    "internalType": "string",
                    "name": "",
                    "type": "string"
                }
            ],
            "stateMutability": "view",
            "type": "function"
        },
        {
            "inputs": [
                {
                    "internalType": "address",
                    "name": "from",
                    "type": "address"
                },
                {
                    "internalType": "address",
                    "name": "to",
                    "type": "address"
                },
                {
                    "internalType": "uint256",
                    "name": "tokenId",
                    "type": "uint256"
                }
            ],
            "name": "transferFrom",
            "outputs": [],
            "stateMutability": "nonpayable",
            "type": "function"
        },
        {
            "inputs": [
                {
                    "internalType": "address",
                    "name": "newOwner",
                    "type": "address"
                }
            ],
            "name": "transferOwnership",
            "outputs": [],
            "stateMutability": "nonpayable",
            "type": "function"
        },
        {
            "inputs": [
                {
                    "internalType": "uint256",
                    "name": "landId",
                    "type": "uint256"
                }
            ],
            "name": "x",
            "outputs": [
                {
                    "internalType": "uint256",
                    "name": "",
                    "type": "uint256"
                }
            ],
            "stateMutability": "view",
            "type": "function"
        },
        {
            "inputs": [
                {
                    "internalType": "uint256",
                    "name": "landId",
                    "type": "uint256"
                }
            ],
            "name": "y",
            "outputs": [
                {
                    "internalType": "uint256",
                    "name": "",
                    "type": "uint256"
                }
            ],
            "stateMutability": "view",
            "type": "function"
        }
    ],
    "bytecode": "608060405261012c60075561012c6008553480156200001d57600080fd5b506040518060400160405280601081526020016f13595b595d185d995c9cd94813185b9960821b815250604051806040016040528060078152602001661355951310539160ca1b8152508160009081620000789190620001a5565b506001620000878282620001a5565b505050620000a46200009e620000aa60201b60201c565b620000ae565b62000271565b3390565b600680546001600160a01b038381166001600160a01b0319831681179093556040519116919082907f8be0079c531659141344cd1fd0a4f28419497f9722a3daafe3b4186f6b6457e090600090a35050565b634e487b7160e01b600052604160045260246000fd5b600181811c908216806200012b57607f821691505b6020821081036200014c57634e487b7160e01b600052602260045260246000fd5b50919050565b601f821115620001a057600081815260208120601f850160051c810160208610156200017b5750805b601f850160051c820191505b818110156200019c5782815560010162000187565b5050505b505050565b81516001600160401b03811115620001c157620001c162000100565b620001d981620001d2845462000116565b8462000152565b602080601f831160018114620002115760008415620001f85750858301515b600019600386901b1c1916600185901b1785556200019c565b600085815260208120601f198616915b82811015620002425788860151825594840194600190910190840162000221565b5085821015620002615787850151600019600388901b60f8161c191681555b5050505050600190811b01905550565b6123a380620002816000396000f3fe608060405234801561001057600080fd5b50600436106101f05760003560e01c80636c0360eb1161010f578063cf456ae7116100a2578063e7a1c1c011610071578063e7a1c1c01461043a578063e985e9c51461044d578063f190dc2114610489578063f2fde38b1461049c57600080fd5b8063cf456ae7146103f8578063d44d33941461040b578063e1758ab714610414578063e3684e391461042757600080fd5b806395d89b41116100de57806395d89b41146103b7578063a22cb465146103bf578063b88d4fde146103d2578063c87b56dd146103e557600080fd5b80636c0360eb1461038357806370a082311461038b578063715018a61461039e5780638da5cb5b146103a657600080fd5b806342842e0e116101875780635caa5794116101565780635caa5794146103185780636259e7e1146103545780636352211e1461036757806369ea80d51461037a57600080fd5b806342842e0e146102cc57806355f804b3146102df57806357ff7c33146102f2578063593aa2831461030557600080fd5b80630ecaea73116101c35780630ecaea731461027257806323b872dd1461028557806325f7388e146102985780633f4263ef146102ab57600080fd5b806301ffc9a7146101f557806306fdde031461021d578063081812fc14610232578063095ea7b31461025d575b600080fd5b6102086102033660046119e5565b6104af565b60405190151581526020015b60405180910390f35b610225610501565b6040516102149190611a52565b610245610240366004611a65565b610593565b6040516001600160a01b039091168152602001610214565b61027061026b366004611a9a565b61062d565b005b610270610280366004611a9a565b610742565b610270610293366004611ac4565b610802565b6102706102a6366004611b00565b610834565b6102be6102b9366004611a65565b610936565b604051908152602001610214565b6102706102da366004611ac4565b610946565b6102706102ed366004611b3c565b610961565b610270610300366004611bae565b610998565b610270610313366004611cd1565b6109dd565b610208610326366004611d2c565b6001600160a01b039182166000908152600c6020908152604080832093909416825291909152205460ff1690565b6102be610362366004611a65565b610a9b565b610245610375366004611a65565b610aab565b6102be60085481565b610225610b22565b6102be610399366004611d5f565b610bb0565b610270610c37565b6006546001600160a01b0316610245565b610225610c6d565b6102706103cd366004611b00565b610c7c565b6102706103e0366004611d7a565b610c87565b6102256103f3366004611a65565b610cb9565b610270610406366004611b00565b610d52565b6102be60075481565b610270610422366004611df6565b610dd8565b610225610435366004611a65565b610ee4565b610270610448366004611eaf565b610efd565b61020861045b366004611d2c565b6001600160a01b03918216600090815260056020908152604080832093909416825291909152205460ff1690565b610208610497366004611a9a565b61105c565b6102706104aa366004611d5f565b61106f565b60006001600160e01b031982166380ac58cd60e01b14806104e057506001600160e01b03198216635b5e139f60e01b145b806104fb57506301ffc9a760e01b6001600160e01b03198316145b92915050565b60606000805461051090611ed2565b80601f016020809104026020016040519081016040528092919081815260200182805461053c90611ed2565b80156105895780601f1061055e57610100808354040283529160200191610589565b820191906000526020600020905b81548152906001019060200180831161056c57829003601f168201915b5050505050905090565b6000818152600260205260408120546001600160a01b03166106115760405162461bcd60e51b815260206004820152602c60248201527f4552433732313a20617070726f76656420717565727920666f72206e6f6e657860448201526b34b9ba32b73a103a37b5b2b760a11b60648201526084015b60405180910390fd5b506000908152600460205260409020546001600160a01b031690565b600061063882610aab565b9050806001600160a01b0316836001600160a01b0316036106a55760405162461bcd60e51b815260206004820152602160248201527f4552433732313a20617070726f76616c20746f2063757272656e74206f776e656044820152603960f91b6064820152608401610608565b336001600160a01b03821614806106c157506106c1813361045b565b6107335760405162461bcd60e51b815260206004820152603860248201527f4552433732313a20617070726f76652063616c6c6572206973206e6f74206f7760448201527f6e6572206e6f7220617070726f76656420666f7220616c6c00000000000000006064820152608401610608565b61073d838361110a565b505050565b336000908152600a602052604090205460ff166107955760405162461bcd60e51b81526020600482015260116024820152702630b7321d1037b7363c9036b4b73a32b960791b6044820152606401610608565b6008546007546107a59190611f22565b8111156107f45760405162461bcd60e51b815260206004820152601e60248201527f4c616e643a206c616e64496420626967676572207468616e206c696d697400006044820152606401610608565b6107fe8282611178565b5050565b61080d335b82611192565b6108295760405162461bcd60e51b815260040161060890611f39565b61073d838383611289565b6001600160a01b0382166108795760405162461bcd60e51b815260206004820152600c60248201526b7a65726f206164647265737360a01b6044820152606401610608565b336001600160a01b038316036108bf5760405162461bcd60e51b815260206004820152600b60248201526a39b0b6b29039b2b73232b960a91b6044820152606401610608565b336000818152600c602090815260408083206001600160a01b03871680855290835292819020805460ff1916861515908117909155815194855291840192909252908201527ff0b61de260123a1abce09cb9d86584e04d38148b91ca99faf8cef82592d1cf35906060015b60405180910390a15050565b6000600754826104fb9190611fa0565b61073d83838360405180602001604052806000815250610c87565b6006546001600160a01b0316331461098b5760405162461bcd60e51b815260040161060890611fb4565b600961073d828483612037565b60005b828110156109d7576109c58484838181106109b8576109b86120f8565b9050602002013583610efd565b806109cf8161210e565b91505061099b565b50505050565b816109e9335b8261142b565b806109f857506109f833610807565b610a445760405162461bcd60e51b815260206004820152601c60248201527f4c616e643a206f6e6c79206f70657261746f72206f72206f776e6572000000006044820152606401610608565b6000838152600d60205260409020610a5c8382612127565b507fa7527b31563240d0f5f29d80c2f13916d38a7b2b19b892c43486ed47722f2ffb8383604051610a8e9291906121e7565b60405180910390a1505050565b6000600854826104fb9190612200565b6000818152600260205260408120546001600160a01b0316806104fb5760405162461bcd60e51b815260206004820152602960248201527f4552433732313a206f776e657220717565727920666f72206e6f6e657869737460448201526832b73a103a37b5b2b760b91b6064820152608401610608565b60098054610b2f90611ed2565b80601f0160208091040260200160405190810160405280929190818152602001828054610b5b90611ed2565b8015610ba85780601f10610b7d57610100808354040283529160200191610ba8565b820191906000526020600020905b815481529060010190602001808311610b8b57829003601f168201915b505050505081565b60006001600160a01b038216610c1b5760405162461bcd60e51b815260206004820152602a60248201527f4552433732313a2062616c616e636520717565727920666f7220746865207a65604482015269726f206164647265737360b01b6064820152608401610608565b506001600160a01b031660009081526003602052604090205490565b6006546001600160a01b03163314610c615760405162461bcd60e51b815260040161060890611fb4565b610c6b60006114aa565b565b60606001805461051090611ed2565b6107fe3383836114fc565b610c913383611192565b610cad5760405162461bcd60e51b815260040161060890611f39565b6109d7848484846115ca565b6000818152600260205260409020546060906001600160a01b0316610d205760405162461bcd60e51b815260206004820152601a60248201527f746f6b656e5552493a20494e56414c49445f544f4b454e5f49440000000000006044820152606401610608565b6009610d2b836115fd565b604051602001610d3c929190612214565b6040516020818303038152906040529050919050565b6006546001600160a01b03163314610d7c5760405162461bcd60e51b815260040161060890611fb4565b6001600160a01b0382166000818152600a6020908152604091829020805460ff19168515159081179091558251938452908301527f279360e293bcf8120adefa5fb6f669c774022ed25c09e099edd1818d155c57b6910161092a565b336000908152600a602052604090205460ff16610e2b5760405162461bcd60e51b81526020600482015260116024820152702630b7321d1037b7363c9036b4b73a32b960791b6044820152606401610608565b60005b815181101561073d57600854600754610e479190611f22565b828281518110610e5957610e596120f8565b60200260200101511115610eaf5760405162461bcd60e51b815260206004820152601e60248201527f4c616e643a206c616e64496420626967676572207468616e206c696d697400006044820152606401610608565b610ed283838381518110610ec557610ec56120f8565b6020026020010151611178565b80610edc8161210e565b915050610e2e565b600d6020526000908152604090208054610b2f90611ed2565b81610f07336109e3565b80610f165750610f1633610807565b610f625760405162461bcd60e51b815260206004820152601c60248201527f4c616e643a206f6e6c79206f70657261746f72206f72206f776e6572000000006044820152606401610608565b6001600160a01b038216610fa75760405162461bcd60e51b815260206004820152600c60248201526b7a65726f206164647265737360a01b6044820152606401610608565b6000838152600b60205260409020546001600160a01b03808416911603610ffd5760405162461bcd60e51b815260206004820152600a6024820152696e6f74206368616e676560b01b6044820152606401610608565b6000838152600b602090815260409182902080546001600160a01b0319166001600160a01b0386169081179091558251868152918201527f87f95b20ab1372dff77d1708b4e56c72e6d27c3b70c80451e84fc2c9ba8a36cd9101610a8e565b6000611068838361142b565b9392505050565b6006546001600160a01b031633146110995760405162461bcd60e51b815260040161060890611fb4565b6001600160a01b0381166110fe5760405162461bcd60e51b815260206004820152602660248201527f4f776e61626c653a206e6577206f776e657220697320746865207a65726f206160448201526564647265737360d01b6064820152608401610608565b611107816114aa565b50565b600081815260046020526040902080546001600160a01b0319166001600160a01b038416908117909155819061113f82610aab565b6001600160a01b03167f8c5be1e5ebec7d5bd14f71427d1e84f3dd0314c0f7b2291e5b200ac8c7c3b92560405160405180910390a45050565b6107fe8282604051806020016040528060008152506116fe565b6000818152600260205260408120546001600160a01b031661120b5760405162461bcd60e51b815260206004820152602c60248201527f4552433732313a206f70657261746f7220717565727920666f72206e6f6e657860448201526b34b9ba32b73a103a37b5b2b760a11b6064820152608401610608565b600061121683610aab565b9050806001600160a01b0316846001600160a01b031614806112515750836001600160a01b031661124684610593565b6001600160a01b0316145b8061128157506001600160a01b0380821660009081526005602090815260408083209388168352929052205460ff165b949350505050565b826001600160a01b031661129c82610aab565b6001600160a01b0316146113005760405162461bcd60e51b815260206004820152602560248201527f4552433732313a207472616e736665722066726f6d20696e636f72726563742060448201526437bbb732b960d91b6064820152608401610608565b6001600160a01b0382166113625760405162461bcd60e51b8152602060048201526024808201527f4552433732313a207472616e7366657220746f20746865207a65726f206164646044820152637265737360e01b6064820152608401610608565b61136d60008261110a565b6001600160a01b038316600090815260036020526040812080546001929061139690849061229b565b90915550506001600160a01b03821660009081526003602052604081208054600192906113c49084906122ae565b909155505060008181526002602052604080822080546001600160a01b0319166001600160a01b0386811691821790925591518493918716917fddf252ad1be2c89b69c2b068fc378daa952ba7f163c4a11628f55a4df523b3ef91a461073d838383611731565b60008061143783610aab565b9050836001600160a01b0316816001600160a01b0316148061147257506000838152600b60205260409020546001600160a01b038581169116145b8061128157506001600160a01b038082166000908152600c602090815260408083209388168352929052205460ff1691505092915050565b600680546001600160a01b038381166001600160a01b0319831681179093556040519116919082907f8be0079c531659141344cd1fd0a4f28419497f9722a3daafe3b4186f6b6457e090600090a35050565b816001600160a01b0316836001600160a01b03160361155d5760405162461bcd60e51b815260206004820152601960248201527f4552433732313a20617070726f766520746f2063616c6c6572000000000000006044820152606401610608565b6001600160a01b03838116600081815260056020908152604080832094871680845294825291829020805460ff191686151590811790915591519182527f17307eab39ab6107e8899845ad3d59bd9653f200f220920489ca2b5937696c31910160405180910390a3505050565b6115d5848484611289565b6115e184848484611784565b6109d75760405162461bcd60e51b8152600401610608906122c1565b6060816000036116245750506040805180820190915260018152600360fc1b602082015290565b8160005b811561164e57806116388161210e565b91506116479050600a83612200565b9150611628565b60008167ffffffffffffffff81111561166957611669611c32565b6040519080825280601f01601f191660200182016040528015611693576020820181803683370190505b5090505b8415611281576116a860018361229b565b91506116b5600a86611fa0565b6116c09060306122ae565b60f81b8183815181106116d5576116d56120f8565b60200101906001600160f81b031916908160001a9053506116f7600a86612200565b9450611697565b6117088383611885565b6117156000848484611784565b61073d5760405162461bcd60e51b8152600401610608906122c1565b6000818152600b6020908152604080832080546001600160a01b03191690558051848152918201929092527f87f95b20ab1372dff77d1708b4e56c72e6d27c3b70c80451e84fc2c9ba8a36cd9101610a8e565b60006001600160a01b0384163b1561187a57604051630a85bd0160e11b81526001600160a01b0385169063150b7a02906117c8903390899088908890600401612313565b6020604051808303816000875af1925050508015611803575060408051601f3d908101601f1916820190925261180091810190612350565b60015b611860573d808015611831576040519150601f19603f3d011682016040523d82523d6000602084013e611836565b606091505b5080516000036118585760405162461bcd60e51b8152600401610608906122c1565b805181602001fd5b6001600160e01b031916630a85bd0160e11b149050611281565b506001949350505050565b6001600160a01b0382166118db5760405162461bcd60e51b815260206004820181905260248201527f4552433732313a206d696e7420746f20746865207a65726f20616464726573736044820152606401610608565b6000818152600260205260409020546001600160a01b0316156119405760405162461bcd60e51b815260206004820152601c60248201527f4552433732313a20746f6b656e20616c7265616479206d696e746564000000006044820152606401610608565b6001600160a01b03821660009081526003602052604081208054600192906119699084906122ae565b909155505060008181526002602052604080822080546001600160a01b0319166001600160a01b03861690811790915590518392907fddf252ad1be2c89b69c2b068fc378daa952ba7f163c4a11628f55a4df523b3ef908290a46107fe60008383611731565b6001600160e01b03198116811461110757600080fd5b6000602082840312156119f757600080fd5b8135611068816119cf565b60005b83811015611a1d578181015183820152602001611a05565b50506000910152565b60008151808452611a3e816020860160208601611a02565b601f01601f19169290920160200192915050565b6020815260006110686020830184611a26565b600060208284031215611a7757600080fd5b5035919050565b80356001600160a01b0381168114611a9557600080fd5b919050565b60008060408385031215611aad57600080fd5b611ab683611a7e565b946020939093013593505050565b600080600060608486031215611ad957600080fd5b611ae284611a7e565b9250611af060208501611a7e565b9150604084013590509250925092565b60008060408385031215611b1357600080fd5b611b1c83611a7e565b915060208301358015158114611b3157600080fd5b809150509250929050565b60008060208385031215611b4f57600080fd5b823567ffffffffffffffff80821115611b6757600080fd5b818501915085601f830112611b7b57600080fd5b813581811115611b8a57600080fd5b866020828501011115611b9c57600080fd5b60209290920196919550909350505050565b600080600060408486031215611bc357600080fd5b833567ffffffffffffffff80821115611bdb57600080fd5b818601915086601f830112611bef57600080fd5b813581811115611bfe57600080fd5b8760208260051b8501011115611c1357600080fd5b602092830195509350611c299186019050611a7e565b90509250925092565b634e487b7160e01b600052604160045260246000fd5b604051601f8201601f1916810167ffffffffffffffff81118282101715611c7157611c71611c32565b604052919050565b600067ffffffffffffffff831115611c9357611c93611c32565b611ca6601f8401601f1916602001611c48565b9050828152838383011115611cba57600080fd5b828260208301376000602084830101529392505050565b60008060408385031215611ce457600080fd5b82359150602083013567ffffffffffffffff811115611d0257600080fd5b8301601f81018513611d1357600080fd5b611d2285823560208401611c79565b9150509250929050565b60008060408385031215611d3f57600080fd5b611d4883611a7e565b9150611d5660208401611a7e565b90509250929050565b600060208284031215611d7157600080fd5b61106882611a7e565b60008060008060808587031215611d9057600080fd5b611d9985611a7e565b9350611da760208601611a7e565b925060408501359150606085013567ffffffffffffffff811115611dca57600080fd5b8501601f81018713611ddb57600080fd5b611dea87823560208401611c79565b91505092959194509250565b60008060408385031215611e0957600080fd5b611e1283611a7e565b915060208084013567ffffffffffffffff80821115611e3057600080fd5b818601915086601f830112611e4457600080fd5b813581811115611e5657611e56611c32565b8060051b9150611e67848301611c48565b8181529183018401918481019089841115611e8157600080fd5b938501935b83851015611e9f57843582529385019390850190611e86565b8096505050505050509250929050565b60008060408385031215611ec257600080fd5b82359150611d5660208401611a7e565b600181811c90821680611ee657607f821691505b602082108103611f0657634e487b7160e01b600052602260045260246000fd5b50919050565b634e487b7160e01b600052601160045260246000fd5b80820281158282048414176104fb576104fb611f0c565b60208082526031908201527f4552433732313a207472616e736665722063616c6c6572206973206e6f74206f6040820152701ddb995c881b9bdc88185c1c1c9bdd9959607a1b606082015260800190565b634e487b7160e01b600052601260045260246000fd5b600082611faf57611faf611f8a565b500690565b6020808252818101527f4f776e61626c653a2063616c6c6572206973206e6f7420746865206f776e6572604082015260600190565b601f82111561073d57600081815260208120601f850160051c810160208610156120105750805b601f850160051c820191505b8181101561202f5782815560010161201c565b505050505050565b67ffffffffffffffff83111561204f5761204f611c32565b6120638361205d8354611ed2565b83611fe9565b6000601f841160018114612097576000851561207f5750838201355b600019600387901b1c1916600186901b1783556120f1565b600083815260209020601f19861690835b828110156120c857868501358255602094850194600190920191016120a8565b50868210156120e55760001960f88860031b161c19848701351681555b505060018560011b0183555b5050505050565b634e487b7160e01b600052603260045260246000fd5b60006001820161212057612120611f0c565b5060010190565b815167ffffffffffffffff81111561214157612141611c32565b6121558161214f8454611ed2565b84611fe9565b602080601f83116001811461218a57600084156121725750858301515b600019600386901b1c1916600185901b17855561202f565b600085815260208120601f198616915b828110156121b95788860151825594840194600190910190840161219a565b50858210156121d75787850151600019600388901b60f8161c191681555b5050505050600190811b01905550565b8281526040602082015260006112816040830184611a26565b60008261220f5761220f611f8a565b500490565b600080845461222281611ed2565b6001828116801561223a576001811461224f5761227e565b60ff198416875282151583028701945061227e565b8860005260208060002060005b858110156122755781548a82015290840190820161225c565b50505082870194505b505050508351612292818360208801611a02565b01949350505050565b818103818111156104fb576104fb611f0c565b808201808211156104fb576104fb611f0c565b60208082526032908201527f4552433732313a207472616e7366657220746f206e6f6e20455243373231526560408201527131b2b4bb32b91034b6b83632b6b2b73a32b960711b606082015260800190565b6001600160a01b038581168252841660208201526040810183905260806060820181905260009061234690830184611a26565b9695505050505050565b60006020828403121561236257600080fd5b8151611068816119cf56fea2646970667358221220f658f60e8092f0298f39f9a5738a9aa3a25b075bd0b16f9545d1d2444bc0420464736f6c63430008130033",
    "sourcePath": "/data/Projects/mtv/memetaverse-contracts/contracts/land/Land.sol",
    "compiler": {
        "name": "solc",
        "version": "0.8.19+commit.7dd6d404"
    },
    "functionHashes": {
        "HEIGHT()": "69ea80d5",
        "WIDTH()": "d44d3394",
        "approve(address,uint256)": "095ea7b3",
        "balanceOf(address)": "70a08231",
        "baseURI()": "6c0360eb",
        "batchCreate(address,uint256[])": "e1758ab7",
        "create(address,uint256)": "0ecaea73",
        "getApproved(uint256)": "081812fc",
        "isApprovedForAll(address,address)": "e985e9c5",
        "isOperator(address,uint256)": "f190dc21",
        "isOperatorUpdates(address,address)": "5caa5794",
        "metadata(uint256)": "e3684e39",
        "name()": "06fdde03",
        "owner()": "8da5cb5b",
        "ownerOf(uint256)": "6352211e",
        "renounceOwnership()": "715018a6",
        "safeTransferFrom(address,address,uint256)": "42842e0e",
        "safeTransferFrom(address,address,uint256,bytes)": "b88d4fde",
        "setApprovalForAll(address,bool)": "a22cb465",
        "setBaseURI(string)": "55f804b3",
        "setManyOperator(uint256[],address)": "57ff7c33",
        "setMetadata(uint256,string)": "593aa283",
        "setMinter(address,bool)": "cf456ae7",
        "setOperator(uint256,address)": "e7a1c1c0",
        "setOperatorUpdates(address,bool)": "25f7388e",
        "supportsInterface(bytes4)": "01ffc9a7",
        "symbol()": "95d89b41",
        "tokenURI(uint256)": "c87b56dd",
        "transferFrom(address,address,uint256)": "23b872dd",
        "transferOwnership(address)": "f2fde38b",
        "x(uint256)": "3f4263ef",
        "y(uint256)": "6259e7e1"
    },
    "gasEstimates": {
        "creation": {
            "codeDepositCost": "1824600",
            "executionCost": "infinite",
            "totalCost": "infinite"
        },
        "external": {
            "HEIGHT()": "2406",
            "WIDTH()": "2362",
            "approve(address,uint256)": "infinite",
            "balanceOf(address)": "2657",
            "baseURI()": "infinite",
            "batchCreate(address,uint256[])": "infinite",
            "create(address,uint256)": "infinite",
            "getApproved(uint256)": "4783",
            "isApprovedForAll(address,address)": "infinite",
            "isOperator(address,uint256)": "7335",
            "isOperatorUpdates(address,address)": "infinite",
            "metadata(uint256)": "infinite",
            "name()": "infinite",
            "owner()": "2443",
            "ownerOf(uint256)": "2645",
            "renounceOwnership()": "28207",
            "safeTransferFrom(address,address,uint256)": "infinite",
            "safeTransferFrom(address,address,uint256,bytes)": "infinite",
            "setApprovalForAll(address,bool)": "26750",
            "setBaseURI(string)": "infinite",
            "setManyOperator(uint256[],address)": "infinite",
            "setMetadata(uint256,string)": "infinite",
            "setMinter(address,bool)": "28226",
            "setOperator(uint256,address)": "infinite",
            "setOperatorUpdates(address,bool)": "26546",
            "supportsInterface(bytes4)": "557",
            "symbol()": "infinite",
            "tokenURI(uint256)": "infinite",
            "transferFrom(address,address,uint256)": "infinite",
            "transferOwnership(address)": "28422",
            "x(uint256)": "2569",
            "y(uint256)": "2524"
        },
        "internal": {
            "_afterTokenTransfer(address,address,uint256)": "infinite",
            "_isOperator(address,uint256)": "infinite"
        }
    }
}