{
    "contractName": "LandDutchAuction",
    "abi": [
        {
            "inputs": [
                {
                    "internalType": "address",
                    "name": "_nft",
                    "type": "address"
                },
                {
                    "internalType": "uint256",
                    "name": "_startTime",
                    "type": "uint256"
                },
                {
                    "internalType": "address",
                    "name": "_treasury",
                    "type": "address"
                },
                {
                    "internalType": "address",
                    "name": "_dealToken",
                    "type": "address"
                },
                {
                    "internalType": "address",
                    "name": "_referral",
                    "type": "address"
                },
                {
                    "components": [
                        {
                            "internalType": "uint256",
                            "name": "duration",
                            "type": "uint256"
                        },
                        {
                            "internalType": "uint256",
                            "name": "price",
                            "type": "uint256"
                        }
                    ],
                    "internalType": "struct LandDutchAuction.Discount[]",
                    "name": "_discounts",
                    "type": "tuple[]"
                }
            ],
            "stateMutability": "nonpayable",
            "type": "constructor"
        },
        {
            "anonymous": false,
            "inputs": [
                {
                    "indexed": false,
                    "internalType": "address",
                    "name": "user",
                    "type": "address"
                },
                {
                    "indexed": false,
                    "internalType": "uint256[]",
                    "name": "landIds",
                    "type": "uint256[]"
                },
                {
                    "indexed": false,
                    "internalType": "uint256",
                    "name": "price",
                    "type": "uint256"
                },
                {
                    "indexed": false,
                    "internalType": "uint256",
                    "name": "netPrice",
                    "type": "uint256"
                }
            ],
            "name": "Buy",
            "type": "event"
        },
        {
            "anonymous": false,
            "inputs": [
                {
                    "indexed": true,
                    "internalType": "address",
                    "name": "previousOwner",
                    "type": "address"
                },
                {
                    "indexed": true,
                    "internalType": "address",
                    "name": "newOwner",
                    "type": "address"
                }
            ],
            "name": "OwnershipTransferred",
            "type": "event"
        },
        {
            "inputs": [
                {
                    "internalType": "address",
                    "name": "user",
                    "type": "address"
                },
                {
                    "internalType": "uint256[]",
                    "name": "landIds",
                    "type": "uint256[]"
                },
                {
                    "internalType": "address",
                    "name": "_referrer",
                    "type": "address"
                }
            ],
            "name": "buy",
            "outputs": [],
            "stateMutability": "nonpayable",
            "type": "function"
        },
        {
            "inputs": [],
            "name": "dealToken",
            "outputs": [
                {
                    "internalType": "address",
                    "name": "",
                    "type": "address"
                }
            ],
            "stateMutability": "view",
            "type": "function"
        },
        {
            "inputs": [
                {
                    "internalType": "uint256",
                    "name": "",
                    "type": "uint256"
                }
            ],
            "name": "discounts",
            "outputs": [
                {
                    "internalType": "uint256",
                    "name": "duration",
                    "type": "uint256"
                },
                {
                    "internalType": "uint256",
                    "name": "price",
                    "type": "uint256"
                }
            ],
            "stateMutability": "view",
            "type": "function"
        },
        {
            "inputs": [],
            "name": "endTime",
            "outputs": [
                {
                    "internalType": "uint256",
                    "name": "",
                    "type": "uint256"
                }
            ],
            "stateMutability": "view",
            "type": "function"
        },
        {
            "inputs": [],
            "name": "getPrice",
            "outputs": [
                {
                    "internalType": "uint256",
                    "name": "",
                    "type": "uint256"
                }
            ],
            "stateMutability": "view",
            "type": "function"
        },
        {
            "inputs": [],
            "name": "nft",
            "outputs": [
                {
                    "internalType": "address",
                    "name": "",
                    "type": "address"
                }
            ],
            "stateMutability": "view",
            "type": "function"
        },
        {
            "inputs": [],
            "name": "owner",
            "outputs": [
                {
                    "internalType": "address",
                    "name": "",
                    "type": "address"
                }
            ],
            "stateMutability": "view",
            "type": "function"
        },
        {
            "inputs": [],
            "name": "referral",
            "outputs": [
                {
                    "internalType": "address",
                    "name": "",
                    "type": "address"
                }
            ],
            "stateMutability": "view",
            "type": "function"
        },
        {
            "inputs": [],
            "name": "referralCommision",
            "outputs": [
                {
                    "internalType": "uint256",
                    "name": "",
                    "type": "uint256"
                }
            ],
            "stateMutability": "view",
            "type": "function"
        },
        {
            "inputs": [],
            "name": "renounceOwnership",
            "outputs": [],
            "stateMutability": "nonpayable",
            "type": "function"
        },
        {
            "inputs": [],
            "name": "startTime",
            "outputs": [
                {
                    "internalType": "uint256",
                    "name": "",
                    "type": "uint256"
                }
            ],
            "stateMutability": "view",
            "type": "function"
        },
        {
            "inputs": [
                {
                    "internalType": "address",
                    "name": "newOwner",
                    "type": "address"
                }
            ],
            "name": "transferOwnership",
            "outputs": [],
            "stateMutability": "nonpayable",
            "type": "function"
        },
        {
            "inputs": [],
            "name": "treasury",
            "outputs": [
                {
                    "internalType": "address",
                    "name": "",
                    "type": "address"
                }
            ],
            "stateMutability": "view",
            "type": "function"
        }
    ],
    "bytecode": "608060405260326006553480156200001657600080fd5b50604051620011ca380380620011ca833981016040819052620000399162000210565b600160005562000049336200012d565b600880546001600160a01b0319166001600160a01b03881617905560028590556200007862093a808662000355565b600355600480546001600160a01b038087166001600160a01b03199283161790925560058054868416908316179055600780549285169290911691909117905560005b815181101562000120576009828281518110620000dc57620000dc62000371565b602090810291909101810151825460018181018555600094855293839020825160029092020190815591015191015580620001178162000387565b915050620000bb565b50505050505050620003a3565b600180546001600160a01b038381166001600160a01b0319831681179093556040519116919082907f8be0079c531659141344cd1fd0a4f28419497f9722a3daafe3b4186f6b6457e090600090a35050565b80516001600160a01b03811681146200019757600080fd5b919050565b634e487b7160e01b600052604160045260246000fd5b604080519081016001600160401b0381118282101715620001d757620001d76200019c565b60405290565b604051601f8201601f191681016001600160401b03811182821017156200020857620002086200019c565b604052919050565b60008060008060008060c087890312156200022a57600080fd5b62000235876200017f565b9550602080880151955060406200024e818a016200017f565b95506200025e60608a016200017f565b94506200026e60808a016200017f565b60a08a01519094506001600160401b03808211156200028c57600080fd5b818b0191508b601f830112620002a157600080fd5b815181811115620002b657620002b66200019c565b620002c6858260051b01620001dd565b818152858101925060069190911b83018501908d821115620002e757600080fd5b928501925b818410156200032c5784848f031215620003065760008081fd5b62000310620001b2565b84518152868501518782015283529284019291850191620002ec565b8096505050505050509295509295509295565b634e487b7160e01b600052601160045260246000fd5b808201808211156200036b576200036b6200033f565b92915050565b634e487b7160e01b600052603260045260246000fd5b6000600182016200039c576200039c6200033f565b5060010190565b610e1780620003b36000396000f3fe608060405234801561001057600080fd5b50600436106100cf5760003560e01c806378e979251161008c57806398d5fdca1161006657806398d5fdca14610181578063b0a6309914610189578063bae6a6901461019c578063f2fde38b146101c457600080fd5b806378e979251461015e5780638206bb13146101675780638da5cb5b1461017057600080fd5b80631441a5a9146100d45780633197cbb61461010457806347ccca021461011b5780635280c3ee1461012e57806361d027b314610141578063715018a614610154575b600080fd5b6007546100e7906001600160a01b031681565b6040516001600160a01b0390911681526020015b60405180910390f35b61010d60035481565b6040519081526020016100fb565b6008546100e7906001600160a01b031681565b6005546100e7906001600160a01b031681565b6004546100e7906001600160a01b031681565b61015c6101d7565b005b61010d60025481565b61010d60065481565b6001546001600160a01b03166100e7565b61010d610242565b61015c610197366004610aef565b61030b565b6101af6101aa366004610bd2565b610510565b604080519283526020830191909152016100fb565b61015c6101d2366004610beb565b61053e565b6001546001600160a01b031633146102365760405162461bcd60e51b815260206004820181905260248201527f4f776e61626c653a2063616c6c6572206973206e6f7420746865206f776e657260448201526064015b60405180910390fd5b6102406000610609565b565b60008061025a6002544261065b90919063ffffffff16565b905060005b6009548110156102d3576009818154811061027c5761027c610c08565b9060005260206000209060020201600001548210156102c157600981815481106102a8576102a8610c08565b9060005260206000209060020201600101549250505090565b806102cb81610c34565b91505061025f565b5060405162461bcd60e51b815260206004820152600c60248201526b496e76616c69642074696d6560a01b604482015260640161022d565b42600254111561035d5760405162461bcd60e51b815260206004820152601d60248201527f4c616e64447574636841756374696f6e3a206e6f742073746172746564000000604482015260640161022d565b4260035410156103af5760405162461bcd60e51b815260206004820152601760248201527f4c616e64447574636841756374696f6e3a20656e646564000000000000000000604482015260640161022d565b60008251116104005760405162461bcd60e51b815260206004820152601e60248201527f4c616e64447574636841756374696f6e3a207a65726f206c616e644964730000604482015260640161022d565b600061040a610242565b9050600061042282855161067090919063ffffffff16565b905061042d8361067c565b600061043882610718565b90506000610446838361065b565b9050610466336004546005546001600160a01b03908116929116846107f3565b60085460405163e1758ab760e01b81526001600160a01b039091169063e1758ab790610498908a908a90600401610c88565b600060405180830381600087803b1580156104b257600080fd5b505af11580156104c6573d6000803e3d6000fd5b505050507f5558785f7dc0e643565d717fde952c207ba721daa9690775eb92ebe78a635b1c878785846040516104ff9493929190610cac565b60405180910390a150505050505050565b6009818154811061052057600080fd5b60009182526020909120600290910201805460019091015490915082565b6001546001600160a01b031633146105985760405162461bcd60e51b815260206004820181905260248201527f4f776e61626c653a2063616c6c6572206973206e6f7420746865206f776e6572604482015260640161022d565b6001600160a01b0381166105fd5760405162461bcd60e51b815260206004820152602660248201527f4f776e61626c653a206e6577206f776e657220697320746865207a65726f206160448201526564647265737360d01b606482015260840161022d565b61060681610609565b50565b600180546001600160a01b038381166001600160a01b0319831681179093556040519116919082907f8be0079c531659141344cd1fd0a4f28419497f9722a3daafe3b4186f6b6457e090600090a35050565b60006106678284610ce3565b90505b92915050565b60006106678284610cf6565b6001600160a01b0381161580159061069d57506001600160a01b0381163314155b15610606576007546001600160a01b0316630c7f7b6b336040516001600160e01b031960e084901b1681526001600160a01b0391821660048201529084166024820152604401600060405180830381600087803b1580156106fd57600080fd5b505af1158015610711573d6000803e3d6000fd5b5050505050565b600654600090156107ee576007546000906001600160a01b0316634a9fefc7336040516001600160e01b031960e084901b1681526001600160a01b039091166004820152602401602060405180830381865afa15801561077c573d6000803e3d6000fd5b505050506040513d601f19601f820116820180604052508101906107a09190610d0d565b90506001600160a01b038116156107ec576107d26127106107cc6006548661067090919063ffffffff16565b90610853565b91506107ec336005546001600160a01b03169083856107f3565b505b919050565b604080516001600160a01b0385811660248301528416604482015260648082018490528251808303909101815260849091019091526020810180516001600160e01b03166323b872dd60e01b17905261084d90859061085f565b50505050565b60006106678284610d2a565b60006108b4826040518060400160405280602081526020017f5361666545524332303a206c6f772d6c6576656c2063616c6c206661696c6564815250856001600160a01b03166109369092919063ffffffff16565b80519091501561093157808060200190518101906108d29190610d4c565b6109315760405162461bcd60e51b815260206004820152602a60248201527f5361666545524332303a204552433230206f7065726174696f6e20646964206e6044820152691bdd081cdd58d8d9595960b21b606482015260840161022d565b505050565b6060610945848460008561094f565b90505b9392505050565b6060824710156109b05760405162461bcd60e51b815260206004820152602660248201527f416464726573733a20696e73756666696369656e742062616c616e636520666f6044820152651c8818d85b1b60d21b606482015260840161022d565b6001600160a01b0385163b610a075760405162461bcd60e51b815260206004820152601d60248201527f416464726573733a2063616c6c20746f206e6f6e2d636f6e7472616374000000604482015260640161022d565b600080866001600160a01b03168587604051610a239190610d92565b60006040518083038185875af1925050503d8060008114610a60576040519150601f19603f3d011682016040523d82523d6000602084013e610a65565b606091505b5091509150610a75828286610a80565b979650505050505050565b60608315610a8f575081610948565b825115610a9f5782518084602001fd5b8160405162461bcd60e51b815260040161022d9190610dae565b6001600160a01b038116811461060657600080fd5b80356107ee81610ab9565b634e487b7160e01b600052604160045260246000fd5b600080600060608486031215610b0457600080fd5b8335610b0f81610ab9565b925060208481013567ffffffffffffffff80821115610b2d57600080fd5b818701915087601f830112610b4157600080fd5b813581811115610b5357610b53610ad9565b8060051b604051601f19603f83011681018181108582111715610b7857610b78610ad9565b60405291825284820192508381018501918a831115610b9657600080fd5b938501935b82851015610bb457843584529385019392850192610b9b565b809750505050505050610bc960408501610ace565b90509250925092565b600060208284031215610be457600080fd5b5035919050565b600060208284031215610bfd57600080fd5b813561094881610ab9565b634e487b7160e01b600052603260045260246000fd5b634e487b7160e01b600052601160045260246000fd5b600060018201610c4657610c46610c1e565b5060010190565b600081518084526020808501945080840160005b83811015610c7d57815187529582019590820190600101610c61565b509495945050505050565b6001600160a01b038316815260406020820181905260009061094590830184610c4d565b6001600160a01b0385168152608060208201819052600090610cd090830186610c4d565b6040830194909452506060015292915050565b8181038181111561066a5761066a610c1e565b808202811582820484141761066a5761066a610c1e565b600060208284031215610d1f57600080fd5b815161094881610ab9565b600082610d4757634e487b7160e01b600052601260045260246000fd5b500490565b600060208284031215610d5e57600080fd5b8151801515811461094857600080fd5b60005b83811015610d89578181015183820152602001610d71565b50506000910152565b60008251610da4818460208701610d6e565b9190910192915050565b6020815260008251806020840152610dcd816040850160208701610d6e565b601f01601f1916919091016040019291505056fea2646970667358221220295821d1f6408e515d37de7fe9ba0fd8e90546d0adc34294094a2a39f222f1ba64736f6c63430008130033",
    "sourcePath": "/data/Projects/mtv/memetaverse-contracts/contracts/land/LandDutchAuction.sol",
    "compiler": {
        "name": "solc",
        "version": "0.8.19+commit.7dd6d404"
    },
    "functionHashes": {
        "buy(address,uint256[],address)": "b0a63099",
        "dealToken()": "5280c3ee",
        "discounts(uint256)": "bae6a690",
        "endTime()": "3197cbb6",
        "getPrice()": "98d5fdca",
        "nft()": "47ccca02",
        "owner()": "8da5cb5b",
        "referral()": "1441a5a9",
        "referralCommision()": "8206bb13",
        "renounceOwnership()": "715018a6",
        "startTime()": "78e97925",
        "transferOwnership(address)": "f2fde38b",
        "treasury()": "61d027b3"
    },
    "gasEstimates": {
        "creation": {
            "codeDepositCost": "721400",
            "executionCost": "infinite",
            "totalCost": "infinite"
        },
        "external": {
            "buy(address,uint256[],address)": "infinite",
            "dealToken()": "2393",
            "discounts(uint256)": "6797",
            "endTime()": "2318",
            "getPrice()": "infinite",
            "nft()": "2371",
            "owner()": "2387",
            "referral()": "2327",
            "referralCommision()": "2340",
            "renounceOwnership()": "28228",
            "startTime()": "2318",
            "transferOwnership(address)": "infinite",
            "treasury()": "2415"
        },
        "internal": {
            "_payReferralCommission(uint256)": "infinite",
            "_recordReferral(address)": "infinite"
        }
    }
}