{
    "contractName": "LandSale",
    "abi": [
        {
            "inputs": [
                {
                    "internalType": "address",
                    "name": "_treasury",
                    "type": "address"
                },
                {
                    "internalType": "address",
                    "name": "_land",
                    "type": "address"
                },
                {
                    "internalType": "address",
                    "name": "_dealToken",
                    "type": "address"
                },
                {
                    "internalType": "uint256",
                    "name": "_pricePerLand",
                    "type": "uint256"
                },
                {
                    "internalType": "address",
                    "name": "_referral",
                    "type": "address"
                },
                {
                    "internalType": "uint256",
                    "name": "_referralCommision",
                    "type": "uint256"
                },
                {
                    "internalType": "uint256",
                    "name": "_startDate",
                    "type": "uint256"
                }
            ],
            "stateMutability": "nonpayable",
            "type": "constructor"
        },
        {
            "anonymous": false,
            "inputs": [
                {
                    "indexed": false,
                    "internalType": "address",
                    "name": "user",
                    "type": "address"
                },
                {
                    "indexed": false,
                    "internalType": "uint256[]",
                    "name": "landIds",
                    "type": "uint256[]"
                },
                {
                    "indexed": false,
                    "internalType": "uint256",
                    "name": "price",
                    "type": "uint256"
                },
                {
                    "indexed": false,
                    "internalType": "uint256",
                    "name": "netPrice",
                    "type": "uint256"
                }
            ],
            "name": "Buy",
            "type": "event"
        },
        {
            "anonymous": false,
            "inputs": [
                {
                    "indexed": true,
                    "internalType": "address",
                    "name": "previousOwner",
                    "type": "address"
                },
                {
                    "indexed": true,
                    "internalType": "address",
                    "name": "newOwner",
                    "type": "address"
                }
            ],
            "name": "OwnershipTransferred",
            "type": "event"
        },
        {
            "inputs": [
                {
                    "internalType": "uint256[]",
                    "name": "landIds",
                    "type": "uint256[]"
                },
                {
                    "internalType": "address",
                    "name": "_referrer",
                    "type": "address"
                }
            ],
            "name": "buy",
            "outputs": [],
            "stateMutability": "nonpayable",
            "type": "function"
        },
        {
            "inputs": [],
            "name": "dealToken",
            "outputs": [
                {
                    "internalType": "address",
                    "name": "",
                    "type": "address"
                }
            ],
            "stateMutability": "view",
            "type": "function"
        },
        {
            "inputs": [],
            "name": "land",
            "outputs": [
                {
                    "internalType": "address",
                    "name": "",
                    "type": "address"
                }
            ],
            "stateMutability": "view",
            "type": "function"
        },
        {
            "inputs": [],
            "name": "owner",
            "outputs": [
                {
                    "internalType": "address",
                    "name": "",
                    "type": "address"
                }
            ],
            "stateMutability": "view",
            "type": "function"
        },
        {
            "inputs": [],
            "name": "pricePerLand",
            "outputs": [
                {
                    "internalType": "uint256",
                    "name": "",
                    "type": "uint256"
                }
            ],
            "stateMutability": "view",
            "type": "function"
        },
        {
            "inputs": [],
            "name": "renounceOwnership",
            "outputs": [],
            "stateMutability": "nonpayable",
            "type": "function"
        },
        {
            "inputs": [
                {
                    "internalType": "address",
                    "name": "_referral",
                    "type": "address"
                }
            ],
            "name": "setReferral",
            "outputs": [],
            "stateMutability": "nonpayable",
            "type": "function"
        },
        {
            "inputs": [
                {
                    "internalType": "uint256",
                    "name": "_rate",
                    "type": "uint256"
                }
            ],
            "name": "setReferralCommissionRate",
            "outputs": [],
            "stateMutability": "nonpayable",
            "type": "function"
        },
        {
            "inputs": [
                {
                    "internalType": "address",
                    "name": "newOwner",
                    "type": "address"
                }
            ],
            "name": "transferOwnership",
            "outputs": [],
            "stateMutability": "nonpayable",
            "type": "function"
        },
        {
            "inputs": [],
            "name": "treasury",
            "outputs": [
                {
                    "internalType": "address",
                    "name": "",
                    "type": "address"
                }
            ],
            "stateMutability": "view",
            "type": "function"
        }
    ],
    "bytecode": "608060405269021e19e0c9bab2400000600555601e60065534801561002357600080fd5b50604051610f1a380380610f1a8339810160408190526100429161011d565b6001600055610050336100af565b600280546001600160a01b03199081166001600160a01b03998a1617909155600380548216978916979097179096556004805487169588169590951790945560078054909516919095161790925560069290925560055560085561018e565b600180546001600160a01b038381166001600160a01b0319831681179093556040519116919082907f8be0079c531659141344cd1fd0a4f28419497f9722a3daafe3b4186f6b6457e090600090a35050565b80516001600160a01b038116811461011857600080fd5b919050565b600080600080600080600060e0888a03121561013857600080fd5b61014188610101565b965061014f60208901610101565b955061015d60408901610101565b94506060880151935061017260808901610101565b925060a0880151915060c0880151905092959891949750929550565b610d7d8061019d6000396000f3fe608060405234801561001057600080fd5b506004361061009e5760003560e01c80639e5914da116100665780639e5914da14610114578063d74d3d7814610127578063e09ac2c61461013a578063e359f47514610151578063f2fde38b1461016457600080fd5b80635280c3ee146100a357806361d027b3146100d3578063715018a6146100e65780638c980129146100f05780638da5cb5b14610103575b600080fd5b6004546100b6906001600160a01b031681565b6040516001600160a01b0390911681526020015b60405180910390f35b6002546100b6906001600160a01b031681565b6100ee610177565b005b6003546100b6906001600160a01b031681565b6001546001600160a01b03166100b6565b6100ee610122366004610a4c565b6101b6565b6100ee610135366004610a69565b610202565b61014360055481565b6040519081526020016100ca565b6100ee61015f366004610a98565b61026e565b6100ee610172366004610a4c565b6104ac565b6001546001600160a01b031633146101aa5760405162461bcd60e51b81526004016101a190610b68565b60405180910390fd5b6101b46000610547565b565b6001546001600160a01b031633146101e05760405162461bcd60e51b81526004016101a190610b68565b600780546001600160a01b0319166001600160a01b0392909216919091179055565b6001546001600160a01b0316331461022c5760405162461bcd60e51b81526004016101a190610b68565b6101f48111156102695760405162461bcd60e51b81526020600482015260086024820152676d61785f7261746560c01b60448201526064016101a1565b600655565b6002600054036102c05760405162461bcd60e51b815260206004820152601f60248201527f5265656e7472616e637947756172643a207265656e7472616e742063616c6c0060448201526064016101a1565b60026000556008544210156103175760405162461bcd60e51b815260206004820152601860248201527f4c616e645072656c616c653a206e6f742073746172746564000000000000000060448201526064016101a1565b60008251116103685760405162461bcd60e51b815260206004820152601c60248201527f4c616e645072656c616c653a20696e76616c6964206c616e644964730000000060448201526064016101a1565b61037181610599565b8151600061037e82610635565b905060006103976005548461067090919063ffffffff16565b905060006103b16127106103ab8486610670565b90610685565b905060006103bf8383610691565b905060006103cc8261069d565b90506103d88282610691565b91506103f8336002546004546001600160a01b0390811692911685610772565b6003546001600160a01b031663e1758ab7338a6040518363ffffffff1660e01b8152600401610428929190610bd8565b600060405180830381600087803b15801561044257600080fd5b505af1158015610456573d6000803e3d6000fd5b505050507f5558785f7dc0e643565d717fde952c207ba721daa9690775eb92ebe78a635b1c6104823390565b8986856040516104959493929190610bfc565b60405180910390a150506001600055505050505050565b6001546001600160a01b031633146104d65760405162461bcd60e51b81526004016101a190610b68565b6001600160a01b03811661053b5760405162461bcd60e51b815260206004820152602660248201527f4f776e61626c653a206e6577206f776e657220697320746865207a65726f206160448201526564647265737360d01b60648201526084016101a1565b61054481610547565b50565b600180546001600160a01b038381166001600160a01b0319831681179093556040519116919082907f8be0079c531659141344cd1fd0a4f28419497f9722a3daafe3b4186f6b6457e090600090a35050565b6001600160a01b038116158015906105ba57506001600160a01b0381163314155b15610544576007546001600160a01b0316630c7f7b6b336040516001600160e01b031960e084901b1681526001600160a01b0391821660048201529084166024820152604401600060405180830381600087803b15801561061a57600080fd5b505af115801561062e573d6000803e3d6000fd5b5050505050565b60006064821061064857506101f4919050565b60328210610658575060fa919050565b600a821061066857506064919050565b506000919050565b600061067c8284610c49565b90505b92915050565b600061067c8284610c60565b600061067c8284610c82565b6006546000901561076d576007546000906001600160a01b0316634a9fefc7336040516001600160e01b031960e084901b1681526001600160a01b039091166004820152602401602060405180830381865afa158015610701573d6000803e3d6000fd5b505050506040513d601f19601f820116820180604052508101906107259190610c95565b90506001600160a01b0381161561076b576107516127106103ab6006548661067090919063ffffffff16565b915061076b336004546001600160a01b0316908385610772565b505b919050565b604080516001600160a01b0385811660248301528416604482015260648082018490528251808303909101815260849091019091526020810180516001600160e01b03166323b872dd60e01b1790526107cc9085906107d2565b50505050565b6000610827826040518060400160405280602081526020017f5361666545524332303a206c6f772d6c6576656c2063616c6c206661696c6564815250856001600160a01b03166108a99092919063ffffffff16565b8051909150156108a457808060200190518101906108459190610cb2565b6108a45760405162461bcd60e51b815260206004820152602a60248201527f5361666545524332303a204552433230206f7065726174696f6e20646964206e6044820152691bdd081cdd58d8d9595960b21b60648201526084016101a1565b505050565b60606108b884846000856108c2565b90505b9392505050565b6060824710156109235760405162461bcd60e51b815260206004820152602660248201527f416464726573733a20696e73756666696369656e742062616c616e636520666f6044820152651c8818d85b1b60d21b60648201526084016101a1565b6001600160a01b0385163b61097a5760405162461bcd60e51b815260206004820152601d60248201527f416464726573733a2063616c6c20746f206e6f6e2d636f6e747261637400000060448201526064016101a1565b600080866001600160a01b031685876040516109969190610cf8565b60006040518083038185875af1925050503d80600081146109d3576040519150601f19603f3d011682016040523d82523d6000602084013e6109d8565b606091505b50915091506109e88282866109f3565b979650505050505050565b60608315610a025750816108bb565b825115610a125782518084602001fd5b8160405162461bcd60e51b81526004016101a19190610d14565b6001600160a01b038116811461054457600080fd5b803561076d81610a2c565b600060208284031215610a5e57600080fd5b81356108bb81610a2c565b600060208284031215610a7b57600080fd5b5035919050565b634e487b7160e01b600052604160045260246000fd5b60008060408385031215610aab57600080fd5b823567ffffffffffffffff80821115610ac357600080fd5b818501915085601f830112610ad757600080fd5b8135602082821115610aeb57610aeb610a82565b8160051b604051601f19603f83011681018181108682111715610b1057610b10610a82565b604052928352818301935084810182019289841115610b2e57600080fd5b948201945b83861015610b4c57853585529482019493820193610b33565b9650610b5b9050878201610a41565b9450505050509250929050565b6020808252818101527f4f776e61626c653a2063616c6c6572206973206e6f7420746865206f776e6572604082015260600190565b600081518084526020808501945080840160005b83811015610bcd57815187529582019590820190600101610bb1565b509495945050505050565b6001600160a01b03831681526040602082018190526000906108b890830184610b9d565b6001600160a01b0385168152608060208201819052600090610c2090830186610b9d565b6040830194909452506060015292915050565b634e487b7160e01b600052601160045260246000fd5b808202811582820484141761067f5761067f610c33565b600082610c7d57634e487b7160e01b600052601260045260246000fd5b500490565b8181038181111561067f5761067f610c33565b600060208284031215610ca757600080fd5b81516108bb81610a2c565b600060208284031215610cc457600080fd5b815180151581146108bb57600080fd5b60005b83811015610cef578181015183820152602001610cd7565b50506000910152565b60008251610d0a818460208701610cd4565b9190910192915050565b6020815260008251806020840152610d33816040850160208701610cd4565b601f01601f1916919091016040019291505056fea26469706673582212205c85f873f6f9dd9752bf4a95e2d46be7646345c3911f91eab9dbbde15b7c7d0964736f6c63430008130033",
    "sourcePath": "/data/Projects/mtv/memetaverse-contracts/contracts/land/LandSale.sol",
    "compiler": {
        "name": "solc",
        "version": "0.8.19+commit.7dd6d404"
    },
    "functionHashes": {
        "buy(uint256[],address)": "e359f475",
        "dealToken()": "5280c3ee",
        "land()": "8c980129",
        "owner()": "8da5cb5b",
        "pricePerLand()": "e09ac2c6",
        "renounceOwnership()": "715018a6",
        "setReferral(address)": "9e5914da",
        "setReferralCommissionRate(uint256)": "d74d3d78",
        "transferOwnership(address)": "f2fde38b",
        "treasury()": "61d027b3"
    },
    "gasEstimates": {
        "creation": {
            "codeDepositCost": "690600",
            "executionCost": "infinite",
            "totalCost": "infinite"
        },
        "external": {
            "buy(uint256[],address)": "infinite",
            "dealToken()": "2327",
            "land()": "2393",
            "owner()": "2409",
            "pricePerLand()": "2339",
            "renounceOwnership()": "28162",
            "setReferral(address)": "26705",
            "setReferralCommissionRate(uint256)": "24512",
            "transferOwnership(address)": "infinite",
            "treasury()": "2349"
        },
        "internal": {
            "_calculateDiscount(uint256)": "94",
            "_payReferralCommission(uint256)": "infinite",
            "_recordReferral(address)": "infinite"
        }
    }
}