{
    "contractName": "Deployment",
    "abi": [
        {
            "inputs": [
                {
                    "internalType": "address",
                    "name": "_treasuryAddress",
                    "type": "address"
                },
                {
                    "internalType": "uint256",
                    "name": "_feePercent",
                    "type": "uint256"
                }
            ],
            "stateMutability": "nonpayable",
            "type": "constructor"
        },
        {
            "anonymous": false,
            "inputs": [
                {
                    "indexed": false,
                    "internalType": "uint256",
                    "name": "deploymentId",
                    "type": "uint256"
                },
                {
                    "indexed": false,
                    "internalType": "string",
                    "name": "tokenURI",
                    "type": "string"
                }
            ],
            "name": "DeployNew",
            "type": "event"
        },
        {
            "anonymous": false,
            "inputs": [
                {
                    "indexed": false,
                    "internalType": "uint256",
                    "name": "deploymentId",
                    "type": "uint256"
                }
            ],
            "name": "DeploymentRemoved",
            "type": "event"
        },
        {
            "anonymous": false,
            "inputs": [
                {
                    "indexed": true,
                    "internalType": "address",
                    "name": "previousOwner",
                    "type": "address"
                },
                {
                    "indexed": true,
                    "internalType": "address",
                    "name": "newOwner",
                    "type": "address"
                }
            ],
            "name": "OwnershipTransferred",
            "type": "event"
        },
        {
            "inputs": [
                {
                    "internalType": "string",
                    "name": "tokenURI",
                    "type": "string"
                }
            ],
            "name": "deploy",
            "outputs": [],
            "stateMutability": "nonpayable",
            "type": "function"
        },
        {
            "inputs": [
                {
                    "internalType": "uint256",
                    "name": "",
                    "type": "uint256"
                }
            ],
            "name": "deploymentOwner",
            "outputs": [
                {
                    "internalType": "address",
                    "name": "",
                    "type": "address"
                }
            ],
            "stateMutability": "view",
            "type": "function"
        },
        {
            "inputs": [],
            "name": "feePercent",
            "outputs": [
                {
                    "internalType": "uint256",
                    "name": "",
                    "type": "uint256"
                }
            ],
            "stateMutability": "view",
            "type": "function"
        },
        {
            "inputs": [],
            "name": "owner",
            "outputs": [
                {
                    "internalType": "address",
                    "name": "",
                    "type": "address"
                }
            ],
            "stateMutability": "view",
            "type": "function"
        },
        {
            "inputs": [
                {
                    "internalType": "uint256",
                    "name": "deploymentId",
                    "type": "uint256"
                }
            ],
            "name": "remove",
            "outputs": [],
            "stateMutability": "nonpayable",
            "type": "function"
        },
        {
            "inputs": [],
            "name": "renounceOwnership",
            "outputs": [],
            "stateMutability": "nonpayable",
            "type": "function"
        },
        {
            "inputs": [
                {
                    "internalType": "uint256",
                    "name": "_feePercent",
                    "type": "uint256"
                }
            ],
            "name": "setFeePercent",
            "outputs": [],
            "stateMutability": "nonpayable",
            "type": "function"
        },
        {
            "inputs": [
                {
                    "internalType": "address",
                    "name": "_treasuryAddress",
                    "type": "address"
                }
            ],
            "name": "setTreasuryAddress",
            "outputs": [],
            "stateMutability": "nonpayable",
            "type": "function"
        },
        {
            "inputs": [
                {
                    "internalType": "address",
                    "name": "newOwner",
                    "type": "address"
                }
            ],
            "name": "transferOwnership",
            "outputs": [],
            "stateMutability": "nonpayable",
            "type": "function"
        },
        {
            "inputs": [],
            "name": "treasuryAddress",
            "outputs": [
                {
                    "internalType": "address",
                    "name": "",
                    "type": "address"
                }
            ],
            "stateMutability": "view",
            "type": "function"
        }
    ],
    "bytecode": "608060405234801561001057600080fd5b506040516107c13803806107c183398101604081905261002f916100b1565b61003833610061565b600380546001600160a01b0319166001600160a01b0393909316929092179091556004556100eb565b600080546001600160a01b038381166001600160a01b0319831681178455604051919092169283917f8be0079c531659141344cd1fd0a4f28419497f9722a3daafe3b4186f6b6457e09190a35050565b600080604083850312156100c457600080fd5b82516001600160a01b03811681146100db57600080fd5b6020939093015192949293505050565b6106c7806100fa6000396000f3fe608060405234801561001057600080fd5b506004361061009e5760003560e01c80637fd6f15c116100665780637fd6f15c1461012c5780638da5cb5b14610143578063c5f956af14610154578063c760231614610167578063f2fde38b1461017a57600080fd5b80634cc82215146100a35780635b40f39e146100b85780636605bfda146100fe578063715018a6146101115780637ce3489b14610119575b600080fd5b6100b66100b13660046104f6565b61018d565b005b6100e16100c63660046104f6565b6002602052600090815260409020546001600160a01b031681565b6040516001600160a01b0390911681526020015b60405180910390f35b6100b661010c36600461050f565b610249565b6100b66102e0565b6100b66101273660046104f6565b610316565b61013560045481565b6040519081526020016100f5565b6000546001600160a01b03166100e1565b6003546100e1906001600160a01b031681565b6100b6610175366004610555565b610384565b6100b661018836600461050f565b61040b565b6000818152600260205260409020546001600160a01b031633146101f05760405162461bcd60e51b815260206004820152601560248201527437b7363c903232b83637bcb6b2b73a1037bbb732b960591b60448201526064015b60405180910390fd5b6000818152600260205260409081902080546001600160a01b0319169055517fbf1d397224ea265702d9ac95f94175157df118cc4c3a12e7352364a142dbbd2e9061023e9083815260200190565b60405180910390a150565b6000546001600160a01b031633146102735760405162461bcd60e51b81526004016101e790610606565b6003546001600160a01b038083169116036102be5760405162461bcd60e51b815260206004820152600b60248201526a1b9bdd0818da185b99d95960aa1b60448201526064016101e7565b600380546001600160a01b0319166001600160a01b0392909216919091179055565b6000546001600160a01b0316331461030a5760405162461bcd60e51b81526004016101e790610606565b61031460006104a6565b565b6000546001600160a01b031633146103405760405162461bcd60e51b81526004016101e790610606565b806004540361037f5760405162461bcd60e51b815260206004820152600b60248201526a1b9bdd0818da185b99d95960aa1b60448201526064016101e7565b600455565b610392600180546001019055565b33600260006103a060015490565b815260200190815260200160002060006101000a8154816001600160a01b0302191690836001600160a01b031602179055507f994817b94fc7fbdad139fc8d78f903a4d4e393ffa5c7a465151bda86d1c966b16103fc60015490565b8260405161023e92919061063b565b6000546001600160a01b031633146104355760405162461bcd60e51b81526004016101e790610606565b6001600160a01b03811661049a5760405162461bcd60e51b815260206004820152602660248201527f4f776e61626c653a206e6577206f776e657220697320746865207a65726f206160448201526564647265737360d01b60648201526084016101e7565b6104a3816104a6565b50565b600080546001600160a01b038381166001600160a01b0319831681178455604051919092169283917f8be0079c531659141344cd1fd0a4f28419497f9722a3daafe3b4186f6b6457e09190a35050565b60006020828403121561050857600080fd5b5035919050565b60006020828403121561052157600080fd5b81356001600160a01b038116811461053857600080fd5b9392505050565b634e487b7160e01b600052604160045260246000fd5b60006020828403121561056757600080fd5b813567ffffffffffffffff8082111561057f57600080fd5b818401915084601f83011261059357600080fd5b8135818111156105a5576105a561053f565b604051601f8201601f19908116603f011681019083821181831017156105cd576105cd61053f565b816040528281528760208487010111156105e657600080fd5b826020860160208301376000928101602001929092525095945050505050565b6020808252818101527f4f776e61626c653a2063616c6c6572206973206e6f7420746865206f776e6572604082015260600190565b82815260006020604081840152835180604085015260005b8181101561066f57858101830151858201606001528201610653565b506000606082860101526060601f19601f83011685010192505050939250505056fea26469706673582212202308c3fab33f7b848b0d45616b5f96837c086b76e9d7b2fa65b1a745b19fd92464736f6c63430008130033",
    "sourcePath": "/data/Projects/mtv/memetaverse-contracts/contracts/Deployment.sol",
    "compiler": {
        "name": "solc",
        "version": "0.8.19+commit.7dd6d404"
    },
    "functionHashes": {
        "deploy(string)": "c7602316",
        "deploymentOwner(uint256)": "5b40f39e",
        "feePercent()": "7fd6f15c",
        "owner()": "8da5cb5b",
        "remove(uint256)": "4cc82215",
        "renounceOwnership()": "715018a6",
        "setFeePercent(uint256)": "7ce3489b",
        "setTreasuryAddress(address)": "6605bfda",
        "transferOwnership(address)": "f2fde38b",
        "treasuryAddress()": "c5f956af"
    },
    "gasEstimates": {
        "creation": {
            "codeDepositCost": "347000",
            "executionCost": "infinite",
            "totalCost": "infinite"
        },
        "external": {
            "deploy(string)": "infinite",
            "deploymentOwner(uint256)": "2489",
            "feePercent()": "2295",
            "owner()": "2342",
            "remove(uint256)": "27804",
            "renounceOwnership()": "28181",
            "setFeePercent(uint256)": "26676",
            "setTreasuryAddress(address)": "28871",
            "transferOwnership(address)": "28362",
            "treasuryAddress()": "2370"
        }
    }
}