{
    "contractName": "CatalysApp",
    "abi": [
        {
            "anonymous": false,
            "inputs": [
                {
                    "indexed": true,
                    "internalType": "bytes32",
                    "name": "_id",
                    "type": "bytes32"
                },
                {
                    "indexed": true,
                    "internalType": "address",
                    "name": "_owner",
                    "type": "address"
                },
                {
                    "indexed": false,
                    "internalType": "string",
                    "name": "_domain",
                    "type": "string"
                }
            ],
            "name": "AddCatalyst",
            "type": "event"
        },
        {
            "anonymous": false,
            "inputs": [
                {
                    "indexed": true,
                    "internalType": "address",
                    "name": "previousOwner",
                    "type": "address"
                },
                {
                    "indexed": true,
                    "internalType": "address",
                    "name": "newOwner",
                    "type": "address"
                }
            ],
            "name": "OwnershipTransferred",
            "type": "event"
        },
        {
            "anonymous": false,
            "inputs": [
                {
                    "indexed": true,
                    "internalType": "bytes32",
                    "name": "_id",
                    "type": "bytes32"
                },
                {
                    "indexed": true,
                    "internalType": "address",
                    "name": "_owner",
                    "type": "address"
                },
                {
                    "indexed": false,
                    "internalType": "string",
                    "name": "_domain",
                    "type": "string"
                }
            ],
            "name": "RemoveCatalyst",
            "type": "event"
        },
        {
            "inputs": [
                {
                    "internalType": "address",
                    "name": "_owner",
                    "type": "address"
                },
                {
                    "internalType": "string",
                    "name": "_domain",
                    "type": "string"
                }
            ],
            "name": "addCatalyst",
            "outputs": [],
            "stateMutability": "nonpayable",
            "type": "function"
        },
        {
            "inputs": [
                {
                    "internalType": "bytes32",
                    "name": "",
                    "type": "bytes32"
                }
            ],
            "name": "catalystById",
            "outputs": [
                {
                    "internalType": "bytes32",
                    "name": "id",
                    "type": "bytes32"
                },
                {
                    "internalType": "address",
                    "name": "owner",
                    "type": "address"
                },
                {
                    "internalType": "string",
                    "name": "domain",
                    "type": "string"
                },
                {
                    "internalType": "uint256",
                    "name": "startTime",
                    "type": "uint256"
                },
                {
                    "internalType": "uint256",
                    "name": "endTime",
                    "type": "uint256"
                }
            ],
            "stateMutability": "view",
            "type": "function"
        },
        {
            "inputs": [],
            "name": "catalystCount",
            "outputs": [
                {
                    "internalType": "uint256",
                    "name": "",
                    "type": "uint256"
                }
            ],
            "stateMutability": "view",
            "type": "function"
        },
        {
            "inputs": [
                {
                    "internalType": "bytes32",
                    "name": "_id",
                    "type": "bytes32"
                }
            ],
            "name": "catalystDomain",
            "outputs": [
                {
                    "internalType": "string",
                    "name": "",
                    "type": "string"
                }
            ],
            "stateMutability": "view",
            "type": "function"
        },
        {
            "inputs": [
                {
                    "internalType": "uint256",
                    "name": "",
                    "type": "uint256"
                }
            ],
            "name": "catalystIds",
            "outputs": [
                {
                    "internalType": "bytes32",
                    "name": "",
                    "type": "bytes32"
                }
            ],
            "stateMutability": "view",
            "type": "function"
        },
        {
            "inputs": [
                {
                    "internalType": "bytes32",
                    "name": "",
                    "type": "bytes32"
                }
            ],
            "name": "catalystIndexById",
            "outputs": [
                {
                    "internalType": "uint256",
                    "name": "",
                    "type": "uint256"
                }
            ],
            "stateMutability": "view",
            "type": "function"
        },
        {
            "inputs": [
                {
                    "internalType": "bytes32",
                    "name": "_id",
                    "type": "bytes32"
                }
            ],
            "name": "catalystOwner",
            "outputs": [
                {
                    "internalType": "address",
                    "name": "",
                    "type": "address"
                }
            ],
            "stateMutability": "view",
            "type": "function"
        },
        {
            "inputs": [
                {
                    "internalType": "bytes32",
                    "name": "",
                    "type": "bytes32"
                }
            ],
            "name": "domains",
            "outputs": [
                {
                    "internalType": "bool",
                    "name": "",
                    "type": "bool"
                }
            ],
            "stateMutability": "view",
            "type": "function"
        },
        {
            "inputs": [],
            "name": "owner",
            "outputs": [
                {
                    "internalType": "address",
                    "name": "",
                    "type": "address"
                }
            ],
            "stateMutability": "view",
            "type": "function"
        },
        {
            "inputs": [
                {
                    "internalType": "address",
                    "name": "",
                    "type": "address"
                }
            ],
            "name": "owners",
            "outputs": [
                {
                    "internalType": "bool",
                    "name": "",
                    "type": "bool"
                }
            ],
            "stateMutability": "view",
            "type": "function"
        },
        {
            "inputs": [
                {
                    "internalType": "bytes32",
                    "name": "_id",
                    "type": "bytes32"
                }
            ],
            "name": "removeCatalyst",
            "outputs": [],
            "stateMutability": "nonpayable",
            "type": "function"
        },
        {
            "inputs": [],
            "name": "renounceOwnership",
            "outputs": [],
            "stateMutability": "nonpayable",
            "type": "function"
        },
        {
            "inputs": [
                {
                    "internalType": "address",
                    "name": "newOwner",
                    "type": "address"
                }
            ],
            "name": "transferOwnership",
            "outputs": [],
            "stateMutability": "nonpayable",
            "type": "function"
        }
    ],
    "bytecode": "608060405234801561001057600080fd5b5061001a3361001f565b61006f565b600080546001600160a01b038381166001600160a01b0319831681178455604051919092169283917f8be0079c531659141344cd1fd0a4f28419497f9722a3daafe3b4186f6b6457e09190a35050565b6111358061007e6000396000f3fe608060405234801561001057600080fd5b50600436106100cf5760003560e01c80637b9b4f2c1161008c578063c722f17711610066578063c722f177146101e4578063c9038ce914610207578063d027023b1461022b578063f2fde38b1461023e57600080fd5b80637b9b4f2c146101ad5780638da5cb5b146101c0578063ba2d7af9146101d157600080fd5b8063022914a7146100d457806318becc101461010c57806340190c651461011e5780635c0bd7101461013e5780636bf19e2a14610183578063715018a6146101a3575b600080fd5b6100f76100e2366004610c50565b60036020526000908152604090205460ff1681565b60405190151581526020015b60405180910390f35b6005545b604051908152602001610103565b61011061012c366004610c72565b60046020526000908152604090205481565b61016b61014c366004610c72565b600090815260016020819052604090912001546001600160a01b031690565b6040516001600160a01b039091168152602001610103565b610196610191366004610c72565b610251565b6040516101039190610cd1565b6101ab6102f6565b005b6101106101bb366004610c72565b610335565b6000546001600160a01b031661016b565b6101ab6101df366004610c72565b610356565b6100f76101f2366004610c72565b60026020526000908152604090205460ff1681565b61021a610215366004610c72565b610693565b604051610103959493929190610ce4565b6101ab610239366004610d22565b610755565b6101ab61024c366004610c50565b610b49565b600081815260016020526040902060020180546060919061027190610da5565b80601f016020809104026020016040519081016040528092919081815260200182805461029d90610da5565b80156102ea5780601f106102bf576101008083540402835291602001916102ea565b820191906000526020600020905b8154815290600101906020018083116102cd57829003601f168201915b50505050509050919050565b6000546001600160a01b031633146103295760405162461bcd60e51b815260040161032090610ddf565b60405180910390fd5b6103336000610be4565b565b6005818154811061034557600080fd5b600091825260209091200154905081565b6000546001600160a01b031633146103805760405162461bcd60e51b815260040161032090610ddf565b600081815260016020908152604080832090519092916103a591600285019101610e14565b60408051601f1981840301815282825280516020918201208554848401909352601884527f4552524f525f434154414c5953545f4e4f545f464f554e44000000000000000091840191909152925084146104125760405162461bcd60e51b81526004016103209190610cd1565b5060018201546001600160a01b0316600090815260036020908152604091829020548251808401909352601e83527f4552524f525f434154414c5953545f414c52454144595f52454d4f56454400009183019190915260ff166104885760405162461bcd60e51b81526004016103209190610cd1565b50600081815260026020908152604091829020548251808401909352601e83527f4552524f525f434154414c5953545f414c52454144595f52454d4f56454400009183019190915260ff166104f05760405162461bcd60e51b81526004016103209190610cd1565b50600482015460408051808201909152601e81527f4552524f525f434154414c5953545f414c52454144595f52454d4f5645440000602082015290156105495760405162461bcd60e51b81526004016103209190610cd1565b506000600161055760055490565b6105619190610e8a565b6000858152600460205260408120546005805493945090928490811061058957610589610eb1565b9060005260206000200154905080600583815481106105aa576105aa610eb1565b600091825260208083209091019290925582815260049091526040902082905560058054806105db576105db610ec7565b60008281526020812082016000199081019190915501905542600486015560018501546040516001600160a01b039091169087907f70eb412a868c3536062a3c120b21934d3577c56f5ab14eb4c703ca3f8b5e2c989061063f9060028a0190610edd565b60405180910390a350505060009283526004602090815260408085208590556001909301546001600160a01b0316845260038152828420805460ff1990811690915591845260029052912080549091169055565b60016020819052600091825260409091208054918101546002820180546001600160a01b0390921692916106c690610da5565b80601f01602080910402602001604051908101604052809291908181526020018280546106f290610da5565b801561073f5780601f106107145761010080835404028352916020019161073f565b820191906000526020600020905b81548152906001019060200180831161072257829003601f168201915b5050505050908060030154908060040154905085565b6000546001600160a01b0316331461077f5760405162461bcd60e51b815260040161032090610ddf565b6040805180820190915260118152704552524f525f4f574e45525f454d50545960781b60208201526001600160a01b0384166107ce5760405162461bcd60e51b81526004016103209190610cd1565b50600082826040516020016107e4929190610f68565b60408051601f19818403018152828252805183830190925260128352714552524f525f444f4d41494e5f454d50545960701b6020840152925061083a5760405162461bcd60e51b81526004016103209190610cd1565b5080516020808301919091206001600160a01b03861660009081526003835260409081902054815180830190925260128252714552524f525f4f574e45525f494e5f55534560701b93820193909352909160ff16156108ac5760405162461bcd60e51b81526004016103209190610cd1565b5060008181526002602090815260409182902054825180840190935260138352724552524f525f444f4d41494e5f494e5f55534560681b9183019190915260ff161561090b5760405162461bcd60e51b81526004016103209190610cd1565b506040514290600090610928908390899089908990602001610f78565b60408051601f19818403018152828252805160209182012060008181526001808452908490200154848401909352600f84526e4552524f525f49445f494e5f55534560881b9184019190915292506001600160a01b03161561099d5760405162461bcd60e51b81526004016103209190610cd1565b506040518060a00160405280828152602001886001600160a01b0316815260200187878080601f016020809104026020016040519081016040528093929190818152602001838380828437600092018290525093855250505060208083018690526040928301829052848252600180825291839020845181559084015191810180546001600160a01b0319166001600160a01b0390931692909217909155908201516002820190610a4e9082611010565b5060608201516003828101919091556080909201516004909101556001600160a01b0388166000908152602091825260408082208054600160ff199182168117909255878452600290945290822080549093168117909255600580548084018255918190527f036b6384b5eca791c62761152d0c79bb0604c104a5fb6f4eb0703f3154bb3db090910183905554610ae59190610e8a565b6004600083815260200190815260200160002081905550866001600160a01b0316817f2d78ff4efbd510d499bdf77bcccb8d9577d4245582a2f4b15d56190ce5d8caf68888604051610b389291906110d0565b60405180910390a350505050505050565b6000546001600160a01b03163314610b735760405162461bcd60e51b815260040161032090610ddf565b6001600160a01b038116610bd85760405162461bcd60e51b815260206004820152602660248201527f4f776e61626c653a206e6577206f776e657220697320746865207a65726f206160448201526564647265737360d01b6064820152608401610320565b610be181610be4565b50565b600080546001600160a01b038381166001600160a01b0319831681178455604051919092169283917f8be0079c531659141344cd1fd0a4f28419497f9722a3daafe3b4186f6b6457e09190a35050565b80356001600160a01b0381168114610c4b57600080fd5b919050565b600060208284031215610c6257600080fd5b610c6b82610c34565b9392505050565b600060208284031215610c8457600080fd5b5035919050565b6000815180845260005b81811015610cb157602081850181015186830182015201610c95565b506000602082860101526020601f19601f83011685010191505092915050565b602081526000610c6b6020830184610c8b565b8581526001600160a01b038516602082015260a060408201819052600090610d0e90830186610c8b565b606083019490945250608001529392505050565b600080600060408486031215610d3757600080fd5b610d4084610c34565b9250602084013567ffffffffffffffff80821115610d5d57600080fd5b818601915086601f830112610d7157600080fd5b813581811115610d8057600080fd5b876020828501011115610d9257600080fd5b6020830194508093505050509250925092565b600181811c90821680610db957607f821691505b602082108103610dd957634e487b7160e01b600052602260045260246000fd5b50919050565b6020808252818101527f4f776e61626c653a2063616c6c6572206973206e6f7420746865206f776e6572604082015260600190565b6000808354610e2281610da5565b60018281168015610e3a5760018114610e4f57610e7e565b60ff1984168752821515830287019450610e7e565b8760005260208060002060005b85811015610e755781548a820152908401908201610e5c565b50505082870194505b50929695505050505050565b81810381811115610eab57634e487b7160e01b600052601160045260246000fd5b92915050565b634e487b7160e01b600052603260045260246000fd5b634e487b7160e01b600052603160045260246000fd5b6000602080835260008454610ef181610da5565b80848701526040600180841660008114610f125760018114610f2c57610f5a565b60ff1985168984015283151560051b890183019550610f5a565b896000528660002060005b85811015610f525781548b8201860152908301908801610f37565b8a0184019650505b509398975050505050505050565b8183823760009101908152919050565b8481526bffffffffffffffffffffffff198460601b16602082015281836034830137600091016034019081529392505050565b634e487b7160e01b600052604160045260246000fd5b601f82111561100b57600081815260208120601f850160051c81016020861015610fe85750805b601f850160051c820191505b8181101561100757828155600101610ff4565b5050505b505050565b815167ffffffffffffffff81111561102a5761102a610fab565b61103e816110388454610da5565b84610fc1565b602080601f831160018114611073576000841561105b5750858301515b600019600386901b1c1916600185901b178555611007565b600085815260208120601f198616915b828110156110a257888601518255948401946001909101908401611083565b50858210156110c05787850151600019600388901b60f8161c191681555b5050505050600190811b01905550565b60208152816020820152818360408301376000818301604090810191909152601f909201601f1916010191905056fea2646970667358221220267f3ea863d0fd33e0037f14cc9d3867bda6b990d0cffca475b4da1829d6d31264736f6c63430008130033",
    "sourcePath": "/data/Projects/mtv/memetaverse-contracts/contracts/catalys/catalys.sol",
    "compiler": {
        "name": "solc",
        "version": "0.8.19+commit.7dd6d404"
    },
    "functionHashes": {
        "addCatalyst(address,string)": "d027023b",
        "catalystById(bytes32)": "c9038ce9",
        "catalystCount()": "18becc10",
        "catalystDomain(bytes32)": "6bf19e2a",
        "catalystIds(uint256)": "7b9b4f2c",
        "catalystIndexById(bytes32)": "40190c65",
        "catalystOwner(bytes32)": "5c0bd710",
        "domains(bytes32)": "c722f177",
        "owner()": "8da5cb5b",
        "owners(address)": "022914a7",
        "removeCatalyst(bytes32)": "ba2d7af9",
        "renounceOwnership()": "715018a6",
        "transferOwnership(address)": "f2fde38b"
    },
    "gasEstimates": {
        "creation": {
            "codeDepositCost": "881000",
            "executionCost": "26757",
            "totalCost": "907757"
        },
        "external": {
            "addCatalyst(address,string)": "infinite",
            "catalystById(bytes32)": "infinite",
            "catalystCount()": "2304",
            "catalystDomain(bytes32)": "infinite",
            "catalystIds(uint256)": "4598",
            "catalystIndexById(bytes32)": "2483",
            "catalystOwner(bytes32)": "2556",
            "domains(bytes32)": "2461",
            "owner()": "2376",
            "owners(address)": "2521",
            "removeCatalyst(bytes32)": "infinite",
            "renounceOwnership()": "28225",
            "transferOwnership(address)": "28397"
        }
    }
}