{
    "contractName": "MemetaverseNFTFactory",
    "abi": [
        {
            "inputs": [
                {
                    "internalType": "address",
                    "name": "_treasuryAddr",
                    "type": "address"
                },
                {
                    "internalType": "address",
                    "name": "_quoteToken",
                    "type": "address"
                },
                {
                    "internalType": "uint256",
                    "name": "_creatingFee",
                    "type": "uint256"
                }
            ],
            "stateMutability": "nonpayable",
            "type": "constructor"
        },
        {
            "anonymous": false,
            "inputs": [
                {
                    "indexed": true,
                    "internalType": "address",
                    "name": "nft",
                    "type": "address"
                },
                {
                    "indexed": false,
                    "internalType": "string",
                    "name": "name",
                    "type": "string"
                },
                {
                    "indexed": false,
                    "internalType": "string",
                    "name": "symbol",
                    "type": "string"
                },
                {
                    "indexed": false,
                    "internalType": "address",
                    "name": "creator",
                    "type": "address"
                }
            ],
            "name": "CollectionCreated",
            "type": "event"
        },
        {
            "anonymous": false,
            "inputs": [
                {
                    "indexed": true,
                    "internalType": "address",
                    "name": "previousOwner",
                    "type": "address"
                },
                {
                    "indexed": true,
                    "internalType": "address",
                    "name": "newOwner",
                    "type": "address"
                }
            ],
            "name": "OwnershipTransferred",
            "type": "event"
        },
        {
            "anonymous": false,
            "inputs": [
                {
                    "indexed": false,
                    "internalType": "uint256",
                    "name": "_creatingFee",
                    "type": "uint256"
                }
            ],
            "name": "SetCreatingFee",
            "type": "event"
        },
        {
            "anonymous": false,
            "inputs": [
                {
                    "indexed": false,
                    "internalType": "address",
                    "name": "_token",
                    "type": "address"
                }
            ],
            "name": "SetQuoteToken",
            "type": "event"
        },
        {
            "anonymous": false,
            "inputs": [
                {
                    "indexed": false,
                    "internalType": "address",
                    "name": "_treasury",
                    "type": "address"
                }
            ],
            "name": "SetTreasury",
            "type": "event"
        },
        {
            "inputs": [],
            "name": "INIT_CODE_NFT_HASH",
            "outputs": [
                {
                    "internalType": "bytes32",
                    "name": "",
                    "type": "bytes32"
                }
            ],
            "stateMutability": "view",
            "type": "function"
        },
        {
            "inputs": [],
            "name": "baseURI",
            "outputs": [
                {
                    "internalType": "string",
                    "name": "",
                    "type": "string"
                }
            ],
            "stateMutability": "view",
            "type": "function"
        },
        {
            "inputs": [
                {
                    "internalType": "uint256",
                    "name": "",
                    "type": "uint256"
                }
            ],
            "name": "collections",
            "outputs": [
                {
                    "internalType": "address",
                    "name": "",
                    "type": "address"
                }
            ],
            "stateMutability": "view",
            "type": "function"
        },
        {
            "inputs": [],
            "name": "collectionsLength",
            "outputs": [
                {
                    "internalType": "uint256",
                    "name": "",
                    "type": "uint256"
                }
            ],
            "stateMutability": "view",
            "type": "function"
        },
        {
            "inputs": [
                {
                    "internalType": "string",
                    "name": "_name",
                    "type": "string"
                },
                {
                    "internalType": "string",
                    "name": "_symbol",
                    "type": "string"
                },
                {
                    "components": [
                        {
                            "internalType": "uint256",
                            "name": "maxSupply",
                            "type": "uint256"
                        },
                        {
                            "internalType": "string",
                            "name": "tokenURI",
                            "type": "string"
                        },
                        {
                            "internalType": "uint256",
                            "name": "price",
                            "type": "uint256"
                        },
                        {
                            "internalType": "address",
                            "name": "treasury",
                            "type": "address"
                        }
                    ],
                    "internalType": "struct IMemetaverseNFT.ItemParams[]",
                    "name": "_items",
                    "type": "tuple[]"
                },
                {
                    "internalType": "string",
                    "name": "_baseURI",
                    "type": "string"
                }
            ],
            "name": "create",
            "outputs": [
                {
                    "internalType": "address",
                    "name": "nft",
                    "type": "address"
                }
            ],
            "stateMutability": "nonpayable",
            "type": "function"
        },
        {
            "inputs": [],
            "name": "creatingFee",
            "outputs": [
                {
                    "internalType": "uint256",
                    "name": "",
                    "type": "uint256"
                }
            ],
            "stateMutability": "view",
            "type": "function"
        },
        {
            "inputs": [
                {
                    "internalType": "address",
                    "name": "",
                    "type": "address"
                }
            ],
            "name": "isCollectionFromFactory",
            "outputs": [
                {
                    "internalType": "bool",
                    "name": "",
                    "type": "bool"
                }
            ],
            "stateMutability": "view",
            "type": "function"
        },
        {
            "inputs": [],
            "name": "maxCreatingFee",
            "outputs": [
                {
                    "internalType": "uint256",
                    "name": "",
                    "type": "uint256"
                }
            ],
            "stateMutability": "view",
            "type": "function"
        },
        {
            "inputs": [],
            "name": "owner",
            "outputs": [
                {
                    "internalType": "address",
                    "name": "",
                    "type": "address"
                }
            ],
            "stateMutability": "view",
            "type": "function"
        },
        {
            "inputs": [],
            "name": "quoteToken",
            "outputs": [
                {
                    "internalType": "address",
                    "name": "",
                    "type": "address"
                }
            ],
            "stateMutability": "view",
            "type": "function"
        },
        {
            "inputs": [],
            "name": "renounceOwnership",
            "outputs": [],
            "stateMutability": "nonpayable",
            "type": "function"
        },
        {
            "inputs": [
                {
                    "internalType": "string",
                    "name": "_baseURI",
                    "type": "string"
                }
            ],
            "name": "setBaseURI",
            "outputs": [],
            "stateMutability": "nonpayable",
            "type": "function"
        },
        {
            "inputs": [
                {
                    "internalType": "uint256",
                    "name": "_creatingFee",
                    "type": "uint256"
                }
            ],
            "name": "setCreatingFee",
            "outputs": [],
            "stateMutability": "nonpayable",
            "type": "function"
        },
        {
            "inputs": [
                {
                    "internalType": "address",
                    "name": "_token",
                    "type": "address"
                }
            ],
            "name": "setQuoteToken",
            "outputs": [],
            "stateMutability": "nonpayable",
            "type": "function"
        },
        {
            "inputs": [
                {
                    "internalType": "address",
                    "name": "_treasury",
                    "type": "address"
                }
            ],
            "name": "setTreasury",
            "outputs": [],
            "stateMutability": "nonpayable",
            "type": "function"
        },
        {
            "inputs": [
                {
                    "internalType": "address",
                    "name": "newOwner",
                    "type": "address"
                }
            ],
            "name": "transferOwnership",
            "outputs": [],
            "stateMutability": "nonpayable",
            "type": "function"
        },
        {
            "inputs": [],
            "name": "treasuryAddr",
            "outputs": [
                {
                    "internalType": "address",
                    "name": "",
                    "type": "address"
                }
            ],
            "stateMutability": "view",
            "type": "function"
        }
    ],
    "bytecode": "608060405268056bc75e2d63100000600555683635c9adc5dea000006006553480156200002b57600080fd5b5060405162004962380380620049628339810160408190526200004e91620000ff565b620000593362000092565b600780546001600160a01b039485166001600160a01b031991821617909155600880549390941692169190911790915560055562000140565b600080546001600160a01b038381166001600160a01b0319831681178455604051919092169283917f8be0079c531659141344cd1fd0a4f28419497f9722a3daafe3b4186f6b6457e09190a35050565b80516001600160a01b0381168114620000fa57600080fd5b919050565b6000806000606084860312156200011557600080fd5b6200012084620000e2565b92506200013060208501620000e2565b9150604084015190509250925092565b61481280620001506000396000f3fe608060405234801561001057600080fd5b506004361061010b5760003560e01c8063843f3c7b116100a2578063ce7fdd1111610071578063ce7fdd1114610216578063d4157bc91461021f578063f0f4426014610232578063f2fde38b14610245578063fdbda0ec1461025857600080fd5b8063843f3c7b146101c15780638da5cb5b146101c95780639080895f146101da578063c0300011146101e357600080fd5b806338dfe268116100de57806338dfe2681461017e57806355f804b3146101915780636c0360eb146101a4578063715018a6146101b957600080fd5b80631cfb886d14610110578063217a4b701461012557806330d9a62a14610155578063375170e314610168575b600080fd5b61012361011e366004610db8565b61026b565b005b600854610138906001600160a01b031681565b6040516001600160a01b0390911681526020015b60405180910390f35b600754610138906001600160a01b031681565b610170610335565b60405190815260200161014c565b61013861018c366004610eb3565b61037f565b61012361019f36600461103a565b61074f565b6101ac610789565b60405161014c91906110c7565b610123610817565b600154610170565b6000546001600160a01b0316610138565b61017060055481565b6102066101f1366004610db8565b60026020526000908152604090205460ff1681565b604051901515815260200161014c565b61017060065481565b61012361022d3660046110da565b61084d565b610123610240366004610db8565b6108f1565b610123610253366004610db8565b6109ab565b6101386102663660046110da565b610a46565b6000546001600160a01b0316331461029e5760405162461bcd60e51b8152600401610295906110f3565b60405180910390fd5b6001600160a01b0381166102e05760405162461bcd60e51b81526020600482015260096024820152683d32b9379030b2323960b91b6044820152606401610295565b600880546001600160a01b0319166001600160a01b0383169081179091556040519081527fb282e6f4b58dc328ccc2b3cb8705a2adde01d653a9f1d6a160e7812489b7e2cf906020015b60405180910390a150565b60405161034460208201610d8f565b601f1982820381018352601f9091011660408190526103669190602001611128565b6040516020818303038152906040528051906020012081565b6000806001600160a01b031660048660405161039b9190611128565b9081526020016040518091039020856040516103b79190611128565b908152602001604051809103902060006103ce3390565b6001600160a01b03908116825260208201929092526040016000205416146104495760405162461bcd60e51b815260206004820152602860248201527f4d656d65746176657273654e4654466163746f72793a20434f4c4c454354494f6044820152674e5f45584953545360c01b6064820152608401610295565b6005541561048b5760006104698451600554610a7090919063ffffffff16565b9050610489336007546008546001600160a01b0390811692911684610a85565b505b60006040518060200161049d90610d8f565b601f1982820381018352601f909101166040529050600086866104bd3390565b6040516020016104cf93929190611144565b604051602081830303815290604052805190602001209050808251602084016000f560405163e6a0706360e01b81529093506001600160a01b0384169063e6a0706390610526908a908a9033908a9060040161118f565b600060405180830381600087803b15801561054057600080fd5b505af1158015610554573d6000803e3d6000fd5b50506001805480820182557fb10e2d527612073b26eecdfd717e6a320cf44b4afac2b0732d9fcbe2b7fa0cf60180546001600160a01b0319166001600160a01b03881690811790915560009081526002602052604090819020805460ff191690921790915551859250600491506105cc908a90611128565b9081526020016040518091039020876040516105e89190611128565b908152602001604051809103902060006105ff3390565b6001600160a01b039081168252602082019290925260400160002080546001600160a01b0319169282169290921790915583167f6974864ab24c795f57c207a650ae6763287c14a1c55fedc8506acb02796eb1a5888833604051610665939291906111d7565b60405180910390a2604051634d0f56eb60e11b81526001600160a01b03841690639a1eadd690610699908890600401611215565b600060405180830381600087803b1580156106b357600080fd5b505af11580156106c7573d6000803e3d6000fd5b50505050826001600160a01b031663f2fde38b6106ec6000546001600160a01b031690565b6040516001600160e01b031960e084901b1681526001600160a01b039091166004820152602401600060405180830381600087803b15801561072d57600080fd5b505af1158015610741573d6000803e3d6000fd5b505050505050949350505050565b6000546001600160a01b031633146107795760405162461bcd60e51b8152600401610295906110f3565b60036107858282611331565b5050565b60038054610796906112a9565b80601f01602080910402602001604051908101604052809291908181526020018280546107c2906112a9565b801561080f5780601f106107e45761010080835404028352916020019161080f565b820191906000526020600020905b8154815290600101906020018083116107f257829003601f168201915b505050505081565b6000546001600160a01b031633146108415760405162461bcd60e51b8152600401610295906110f3565b61084b6000610ae5565b565b6000546001600160a01b031633146108775760405162461bcd60e51b8152600401610295906110f3565b6006548111156108bc5760405162461bcd60e51b815260206004820152601060248201526f6d6178206372656174696e672066656560801b6044820152606401610295565b60058190556040518181527f03e64f2fdfe7ef015fb98305e32e7c1251dde1b516bd5dca0bdbdccaf2b830df9060200161032a565b6000546001600160a01b0316331461091b5760405162461bcd60e51b8152600401610295906110f3565b6001600160a01b03811661095d5760405162461bcd60e51b81526020600482015260096024820152683d32b9379030b2323960b91b6044820152606401610295565b600780546001600160a01b0319166001600160a01b0383169081179091556040519081527fcb7ef3e545f5cdb893f5c568ba710fe08f336375a2d9fd66e161033f8fc09ef39060200161032a565b6000546001600160a01b031633146109d55760405162461bcd60e51b8152600401610295906110f3565b6001600160a01b038116610a3a5760405162461bcd60e51b815260206004820152602660248201527f4f776e61626c653a206e6577206f776e657220697320746865207a65726f206160448201526564647265737360d01b6064820152608401610295565b610a4381610ae5565b50565b60018181548110610a5657600080fd5b6000918252602090912001546001600160a01b0316905081565b6000610a7c82846113f1565b90505b92915050565b604080516001600160a01b0385811660248301528416604482015260648082018490528251808303909101815260849091019091526020810180516001600160e01b03166323b872dd60e01b179052610adf908590610b35565b50505050565b600080546001600160a01b038381166001600160a01b0319831681178455604051919092169283917f8be0079c531659141344cd1fd0a4f28419497f9722a3daafe3b4186f6b6457e09190a35050565b6000610b8a826040518060400160405280602081526020017f5361666545524332303a206c6f772d6c6576656c2063616c6c206661696c6564815250856001600160a01b0316610c0c9092919063ffffffff16565b805190915015610c075780806020019051810190610ba89190611416565b610c075760405162461bcd60e51b815260206004820152602a60248201527f5361666545524332303a204552433230206f7065726174696f6e20646964206e6044820152691bdd081cdd58d8d9595960b21b6064820152608401610295565b505050565b6060610c1b8484600085610c25565b90505b9392505050565b606082471015610c865760405162461bcd60e51b815260206004820152602660248201527f416464726573733a20696e73756666696369656e742062616c616e636520666f6044820152651c8818d85b1b60d21b6064820152608401610295565b6001600160a01b0385163b610cdd5760405162461bcd60e51b815260206004820152601d60248201527f416464726573733a2063616c6c20746f206e6f6e2d636f6e74726163740000006044820152606401610295565b600080866001600160a01b03168587604051610cf99190611128565b60006040518083038185875af1925050503d8060008114610d36576040519150601f19603f3d011682016040523d82523d6000602084013e610d3b565b606091505b5091509150610d4b828286610d56565b979650505050505050565b60608315610d65575081610c1e565b825115610d755782518084602001fd5b8160405162461bcd60e51b815260040161029591906110c7565b6133a48061143983390190565b80356001600160a01b0381168114610db357600080fd5b919050565b600060208284031215610dca57600080fd5b610a7c82610d9c565b634e487b7160e01b600052604160045260246000fd5b6040516080810167ffffffffffffffff81118282101715610e0c57610e0c610dd3565b60405290565b604051601f8201601f1916810167ffffffffffffffff81118282101715610e3b57610e3b610dd3565b604052919050565b600082601f830112610e5457600080fd5b813567ffffffffffffffff811115610e6e57610e6e610dd3565b610e81601f8201601f1916602001610e12565b818152846020838601011115610e9657600080fd5b816020850160208301376000918101602001919091529392505050565b60008060008060808587031215610ec957600080fd5b67ffffffffffffffff8086351115610ee057600080fd5b610eed8787358801610e43565b9450602086013581811115610f0157600080fd5b610f0d88828901610e43565b945050604086013581811115610f2257600080fd5b8601601f81018813610f3357600080fd5b803582811115610f4557610f45610dd3565b610f5460208260051b01610e12565b8082825260208201915060208360051b85010192508a831115610f7657600080fd5b602084015b83811015611009578581351115610f9157600080fd5b803585016080818e03601f19011215610fa957600080fd5b610fb1610de9565b60208201358152604082013588811115610fca57600080fd5b610fd98f602083860101610e43565b60208301525060608201356040820152610ff560808301610d9c565b606082015284525060209283019201610f7b565b50955050505060608601358181111561102157600080fd5b61102d88828901610e43565b9250505092959194509250565b60006020828403121561104c57600080fd5b813567ffffffffffffffff81111561106357600080fd5b61106f84828501610e43565b949350505050565b60005b8381101561109257818101518382015260200161107a565b50506000910152565b600081518084526110b3816020860160208601611077565b601f01601f19169290920160200192915050565b602081526000610a7c602083018461109b565b6000602082840312156110ec57600080fd5b5035919050565b6020808252818101527f4f776e61626c653a2063616c6c6572206973206e6f7420746865206f776e6572604082015260600190565b6000825161113a818460208701611077565b9190910192915050565b60008451611156818460208901611077565b84519083019061116a818360208901611077565b60609490941b6bffffffffffffffffffffffff19169301928352505060140192915050565b6080815260006111a2608083018761109b565b82810360208401526111b4818761109b565b6001600160a01b038616604085015283810360608501529050610d4b818561109b565b6060815260006111ea606083018661109b565b82810360208401526111fc818661109b565b91505060018060a01b0383166040830152949350505050565b60006020808301818452808551808352604092508286019150828160051b87010184880160005b8381101561129b57603f19898403018552815160808151855288820151818a87015261126a8287018261109b565b838a0151878b01526060938401516001600160a01b031693909601929092525050938601939086019060010161123c565b509098975050505050505050565b600181811c908216806112bd57607f821691505b6020821081036112dd57634e487b7160e01b600052602260045260246000fd5b50919050565b601f821115610c0757600081815260208120601f850160051c8101602086101561130a5750805b601f850160051c820191505b8181101561132957828155600101611316565b505050505050565b815167ffffffffffffffff81111561134b5761134b610dd3565b61135f8161135984546112a9565b846112e3565b602080601f831160018114611394576000841561137c5750858301515b600019600386901b1c1916600185901b178555611329565b600085815260208120601f198616915b828110156113c3578886015182559484019460019091019084016113a4565b50858210156113e15787850151600019600388901b60f8161c191681555b5050505050600190811b01905550565b8082028115828204841417610a7f57634e487b7160e01b600052601160045260246000fd5b60006020828403121561142857600080fd5b81518015158114610c1e57600080fdfe608060405260fc805460ff1916905534801561001a57600080fd5b5061337a8061002a6000396000f3fe608060405234801561001057600080fd5b50600436106102065760003560e01c80636d2e4b1b1161011a578063b88d4fde116100ad578063cf456ae71161007c578063cf456ae71461046b578063e6a070631461047e578063e985e9c514610491578063f2fde38b146104a4578063f863208d146104b757600080fd5b8063b88d4fde1461040e578063bfb231d214610421578063c45a015514610445578063c87b56dd1461045857600080fd5b806395d89b41116100e957806395d89b41146103cd5780639a1eadd6146103d5578063a22cb465146103e8578063adcb005c146103fb57600080fd5b80636d2e4b1b1461038057806370a0823114610393578063715018a6146103b45780638da5cb5b146103bc57600080fd5b80633129e7731161019d57806355f804b31161016c57806355f804b31461032c5780636352211e1461033f57806363f0fafa146103525780636724c568146103655780636c0360eb1461037857600080fd5b80633129e773146102d357806342842e0e146102f357806346d5a5681461030657806355c8d2a71461031957600080fd5b8063095ea7b3116101d9578063095ea7b31461028b5780630ecaea73146102a057806323b872dd146102b357806328f371aa146102c657600080fd5b806301ffc9a71461020b57806302d05d3f1461023357806306fdde0314610263578063081812fc14610278575b600080fd5b61021e610219366004612524565b6104c0565b60405190151581526020015b60405180910390f35b60fc5461024b9061010090046001600160a01b031681565b6040516001600160a01b03909116815260200161022a565b61026b610512565b60405161022a9190612598565b61024b6102863660046125ab565b6105a4565b61029e6102993660046125db565b61063e565b005b61029e6102ae3660046125db565b610753565b61029e6102c1366004612605565b6107e2565b60fc5461021e9060ff1681565b6102e66102e13660046125ab565b610813565b60405161022a9190612641565b61029e610301366004612605565b610957565b61029e6103143660046126ac565b610972565b61029e6103273660046128c9565b610a56565b61029e61033a366004612981565b610d1d565b61024b61034d3660046125ab565b610d53565b61029e6103603660046129b5565b610dca565b6102e66103733660046125ab565b610e78565b61026b610f0a565b61029e61038e3660046129e8565b610f98565b6103a66103a13660046129e8565b611057565b60405190815260200161022a565b61029e6110de565b60c9546001600160a01b031661024b565b61026b611114565b61029e6103e3366004612a03565b611123565b61029e6103f6366004612a37565b611332565b6103a66104093660046125ab565b61133d565b61029e61041c366004612a6a565b6113d1565b61043461042f3660046125ab565b611403565b60405161022a959493929190612ae5565b60fe5461024b906001600160a01b031681565b61026b6104663660046125ab565b6114dc565b61029e610479366004612a37565b611695565b61029e61048c366004612b26565b61175f565b61021e61049f366004612bb2565b61186f565b61029e6104b23660046129e8565b61189d565b610101546103a6565b60006001600160e01b031982166380ac58cd60e01b14806104f157506001600160e01b03198216635b5e139f60e01b145b8061050c57506301ffc9a760e01b6001600160e01b03198316145b92915050565b60606065805461052190612bdc565b80601f016020809104026020016040519081016040528092919081815260200182805461054d90612bdc565b801561059a5780601f1061056f5761010080835404028352916020019161059a565b820191906000526020600020905b81548152906001019060200180831161057d57829003601f168201915b5050505050905090565b6000818152606760205260408120546001600160a01b03166106225760405162461bcd60e51b815260206004820152602c60248201527f4552433732313a20617070726f76656420717565727920666f72206e6f6e657860448201526b34b9ba32b73a103a37b5b2b760a11b60648201526084015b60405180910390fd5b506000908152606960205260409020546001600160a01b031690565b600061064982610d53565b9050806001600160a01b0316836001600160a01b0316036106b65760405162461bcd60e51b815260206004820152602160248201527f4552433732313a20617070726f76616c20746f2063757272656e74206f776e656044820152603960f91b6064820152608401610619565b336001600160a01b03821614806106d257506106d2813361186f565b6107445760405162461bcd60e51b815260206004820152603860248201527f4552433732313a20617070726f76652063616c6c6572206973206e6f74206f7760448201527f6e6572206e6f7220617070726f76656420666f7220616c6c00000000000000006064820152608401610619565b61074e8383611935565b505050565b33600090815260fd602052604090205460ff166107825760405162461bcd60e51b815260040161061990612c16565b60fc5460ff166107d45760405162461bcd60e51b815260206004820152601c60248201527f4d656d65746176657273654e46543a206e6f7420617070726f766564000000006044820152606401610619565b6107de82826119a3565b5050565b6107ec3382611b1c565b6108085760405162461bcd60e51b815260040161061990612c5a565b61074e838383611bf3565b61081b6124d6565b6000610101838154811061083157610831612cab565b906000526020600020906005020160000154116108605760405162461bcd60e51b815260040161061990612cc1565b610101828154811061087457610874612cab565b90600052602060002090600502016040518060a001604052908160008201548152602001600182015481526020016002820180546108b190612bdc565b80601f01602080910402602001604051908101604052809291908181526020018280546108dd90612bdc565b801561092a5780601f106108ff5761010080835404028352916020019161092a565b820191906000526020600020905b81548152906001019060200180831161090d57829003601f168201915b5050509183525050600382015460208201526004909101546001600160a01b031660409091015292915050565b61074e838383604051806020016040528060008152506113d1565b60c9546001600160a01b0316331461099c5760405162461bcd60e51b815260040161061990612cf8565b60fc5481151560ff909116151503610a005760405162461bcd60e51b815260206004820152602160248201527f4d656d65746176657273654e46543a2076616c7565206973207468652073616d6044820152606560f81b6064820152608401610619565b60fc546040805160ff9092161515825282151560208301527f9ea3c7bd2b8ff87a3768286a529f5932ca385584c8ddf42eea8eade2ac1fb121910160405180910390a160fc805460ff1916911515919091179055565b60fc546001600160a01b0361010090910416331480610a7f575060c9546001600160a01b031633145b610a9b5760405162461bcd60e51b815260040161061990612d2d565b60fc5460ff1615610aee5760405162461bcd60e51b815260206004820152601c60248201527f4d656d65746176657273654e46543a206e6f74206564697461626c65000000006044820152606401610619565b60005b8251811015610cdf57828181518110610b0c57610b0c612cab565b60200260200101516101018054905011610b385760405162461bcd60e51b815260040161061990612cc1565b6000610101848381518110610b4f57610b4f612cab565b602002602001015181548110610b6757610b67612cab565b90600052602060002090600502019050828281518110610b8957610b89612cab565b60200260200101516000015181600101541115610c0e5760405162461bcd60e51b815260206004820152603c60248201527f4d656d65746176657273654e46543a206d617820737570706c79206d7573742060448201527f62652067726561746572207468616e20746f74616c20737570706c79000000006064820152608401610619565b828281518110610c2057610c20612cab565b60209081029190910101515181558251839083908110610c4257610c42612cab565b602002602001015160200151816002019081610c5e9190612dc9565b50828281518110610c7157610c71612cab565b6020026020010151604001518160030181905550828281518110610c9757610c97612cab565b6020026020010151606001518160040160006101000a8154816001600160a01b0302191690836001600160a01b03160217905550508080610cd790612e9e565b915050610af1565b507f147c71020d0df0c39fc9b031f44356a90225c9fd1eda8b1f0c3ce6e216f3a4418282604051610d11929190612f3c565b60405180910390a15050565b60c9546001600160a01b03163314610d475760405162461bcd60e51b815260040161061990612cf8565b60ff6107de8282612dc9565b6000818152606760205260408120546001600160a01b03168061050c5760405162461bcd60e51b815260206004820152602960248201527f4552433732313a206f776e657220717565727920666f72206e6f6e657869737460448201526832b73a103a37b5b2b760b91b6064820152608401610619565b33600090815260fd602052604090205460ff16610df95760405162461bcd60e51b815260040161061990612c16565b60fc5460ff16610e4b5760405162461bcd60e51b815260206004820152601c60248201527f4d656d65746176657273654e46543a206e6f7420617070726f766564000000006044820152606401610619565b60005b81811015610e7257610e6084846119a3565b80610e6a81612e9e565b915050610e4e565b50505050565b610e806124d6565b6000828152606760205260409020546001600160a01b0316610ee45760405162461bcd60e51b815260206004820152601a60248201527f746f6b656e5552493a20494e56414c49445f544f4b454e5f49440000000000006044820152606401610619565b600082815261010060205260409020546101018054909190811061087457610874612cab565b60ff8054610f1790612bdc565b80601f0160208091040260200160405190810160405280929190818152602001828054610f4390612bdc565b8015610f905780601f10610f6557610100808354040283529160200191610f90565b820191906000526020600020905b815481529060010190602001808311610f7357829003601f168201915b505050505081565b60fc546001600160a01b0361010090910416331480610fc1575060c9546001600160a01b031633145b610fdd5760405162461bcd60e51b815260040161061990612d2d565b6001600160a01b03811661104b5760405162461bcd60e51b815260206004820152602f60248201527f4d656d65746176657273654e46543a206e65772063726561746f72206973207460448201526e6865207a65726f206164647265737360881b6064820152608401610619565b61105481611d8f565b50565b60006001600160a01b0382166110c25760405162461bcd60e51b815260206004820152602a60248201527f4552433732313a2062616c616e636520717565727920666f7220746865207a65604482015269726f206164647265737360b01b6064820152608401610619565b506001600160a01b031660009081526068602052604090205490565b60c9546001600160a01b031633146111085760405162461bcd60e51b815260040161061990612cf8565b6111126000611dee565b565b60606066805461052190612bdc565b60fc546001600160a01b036101009091041633148061114c575060c9546001600160a01b031633145b6111685760405162461bcd60e51b815260040161061990612d2d565b60fc5460ff16156111bb5760405162461bcd60e51b815260206004820152601c60248201527f4d656d65746176657273654e46543a206e6f74206564697461626c65000000006044820152606401610619565b60005b81518110156112f7576101016040518060a001604052808484815181106111e7576111e7612cab565b60200260200101516000015181526020016000815260200184848151811061121157611211612cab565b602002602001015160200151815260200184848151811061123457611234612cab565b602002602001015160400151815260200184848151811061125757611257612cab565b602090810291909101810151606001516001600160a01b031690915282546001818101855560009485529382902083516005909202019081559082015192810192909255604081015190919060028201906112b29082612dc9565b5060608201516003820155608090910151600490910180546001600160a01b0319166001600160a01b03909216919091179055806112ef81612e9e565b9150506111be565b507f0b319184c6992e4187cc5cc44b7b9f1375caa5043676ddeeef06082f1c64cfbd816040516113279190612f93565b60405180910390a150565b6107de338383611e40565b600080610101838154811061135457611354612cab565b906000526020600020906005020160000154116113a45760405162461bcd60e51b815260206004820152600e60248201526d1a5d195b481b9bdd08199bdd5b9960921b6044820152606401610619565b61010182815481106113b8576113b8612cab565b9060005260206000209060050201600301549050919050565b6113db3383611b1c565b6113f75760405162461bcd60e51b815260040161061990612c5a565b610e7284848484611f0e565b610101818154811061141457600080fd5b906000526020600020906005020160009150905080600001549080600101549080600201805461144390612bdc565b80601f016020809104026020016040519081016040528092919081815260200182805461146f90612bdc565b80156114bc5780601f10611491576101008083540402835291602001916114bc565b820191906000526020600020905b81548152906001019060200180831161149f57829003601f168201915b5050505060038301546004909301549192916001600160a01b0316905085565b6000818152606760205260409020546060906001600160a01b03166115435760405162461bcd60e51b815260206004820152601a60248201527f746f6b656e5552493a20494e56414c49445f544f4b454e5f49440000000000006044820152606401610619565b600060ff805461155290612bdc565b80601f016020809104026020016040519081016040528092919081815260200182805461157e90612bdc565b80156115cb5780601f106115a0576101008083540402835291602001916115cb565b820191906000526020600020905b8154815290600101906020018083116115ae57829003601f168201915b5050505050905080516000036116595760fe60009054906101000a90046001600160a01b03166001600160a01b0316636c0360eb6040518163ffffffff1660e01b8152600401600060405180830381865afa15801561162e573d6000803e3d6000fd5b505050506040513d6000823e601f3d908101601f191682016040526116569190810190612fa6565b90505b8061166330611f41565b61166c85612088565b60405160200161167e9392919061301c565b604051602081830303815290604052915050919050565b60fc546001600160a01b036101009091041633146117035760405162461bcd60e51b815260206004820152602560248201527f4d656d65746176657273654e46543a2063616c6c6572206973206e6f7420637260448201526432b0ba37b960d91b6064820152608401610619565b6001600160a01b038216600081815260fd6020908152604091829020805460ff19168515159081179091558251938452908301527f279360e293bcf8120adefa5fb6f669c774022ed25c09e099edd1818d155c57b69101610d11565b600054610100900460ff1661177a5760005460ff161561177e565b303b155b6117e15760405162461bcd60e51b815260206004820152602e60248201527f496e697469616c697a61626c653a20636f6e747261637420697320616c72656160448201526d191e481a5b9a5d1a585b1a5e995960921b6064820152608401610619565b600054610100900460ff16158015611803576000805461ffff19166101011790555b61180d8585612188565b6118156121b9565b60fc80546001600160a01b03851661010002610100600160a81b031990911617905560fe80546001600160a01b0319163317905560ff6118558382612dc9565b508015611868576000805461ff00191690555b5050505050565b6001600160a01b039182166000908152606a6020908152604080832093909416825291909152205460ff1690565b60c9546001600160a01b031633146118c75760405162461bcd60e51b815260040161061990612cf8565b6001600160a01b03811661192c5760405162461bcd60e51b815260206004820152602660248201527f4f776e61626c653a206e6577206f776e657220697320746865207a65726f206160448201526564647265737360d01b6064820152608401610619565b61105481611dee565b600081815260696020526040902080546001600160a01b0319166001600160a01b038416908117909155819061196a82610d53565b6001600160a01b03167f8c5be1e5ebec7d5bd14f71427d1e84f3dd0314c0f7b2291e5b200ac8c7c3b92560405160405180910390a45050565b6101015481106119c55760405162461bcd60e51b815260040161061990612cc1565b61010181815481106119d9576119d9612cab565b90600052602060002090600502016000015461010182815481106119ff576119ff612cab565b90600052602060002090600502016001015410611a5e5760405162461bcd60e51b815260206004820152601a60248201527f4d656d65746176657273654e46543a206d617820737570706c790000000000006044820152606401610619565b611a6c60fb80546001019055565b6000611a7760fb5490565b9050611a8383826121e8565b600081815261010060205260409020829055610101805483908110611aaa57611aaa612cab565b600091825260208220600160059092020101805491611ac883612e9e565b9091555050604080516001600160a01b0385168152602081018390529081018390527f95b18bbe5373dcbe675d3ab2ae6e3888392575c51b8b8c9c3cbbdb431af192999060600160405180910390a1505050565b6000818152606760205260408120546001600160a01b0316611b955760405162461bcd60e51b815260206004820152602c60248201527f4552433732313a206f70657261746f7220717565727920666f72206e6f6e657860448201526b34b9ba32b73a103a37b5b2b760a11b6064820152608401610619565b6000611ba083610d53565b9050806001600160a01b0316846001600160a01b03161480611bdb5750836001600160a01b0316611bd0846105a4565b6001600160a01b0316145b80611beb5750611beb818561186f565b949350505050565b826001600160a01b0316611c0682610d53565b6001600160a01b031614611c6a5760405162461bcd60e51b815260206004820152602560248201527f4552433732313a207472616e736665722066726f6d20696e636f72726563742060448201526437bbb732b960d91b6064820152608401610619565b6001600160a01b038216611ccc5760405162461bcd60e51b8152602060048201526024808201527f4552433732313a207472616e7366657220746f20746865207a65726f206164646044820152637265737360e01b6064820152608401610619565b611cd7600082611935565b6001600160a01b0383166000908152606860205260408120805460019290611d0090849061307c565b90915550506001600160a01b0382166000908152606860205260408120805460019290611d2e90849061308f565b909155505060008181526067602052604080822080546001600160a01b0319166001600160a01b0386811691821790925591518493918716917fddf252ad1be2c89b69c2b068fc378daa952ba7f163c4a11628f55a4df523b3ef91a4505050565b60fc80546001600160a01b03838116610100908102610100600160a81b0319841617938490556040519281900482169304169082907ff25c6226b06a6bf4b2c2391bb66962bb4290c323cf8b5814efb185aba3f42d5f90600090a35050565b60c980546001600160a01b038381166001600160a01b0319831681179093556040519116919082907f8be0079c531659141344cd1fd0a4f28419497f9722a3daafe3b4186f6b6457e090600090a35050565b816001600160a01b0316836001600160a01b031603611ea15760405162461bcd60e51b815260206004820152601960248201527f4552433732313a20617070726f766520746f2063616c6c6572000000000000006044820152606401610619565b6001600160a01b038381166000818152606a6020908152604080832094871680845294825291829020805460ff191686151590811790915591519182527f17307eab39ab6107e8899845ad3d59bd9653f200f220920489ca2b5937696c31910160405180910390a3505050565b611f19848484611bf3565b611f258484848461232a565b610e725760405162461bcd60e51b8152600401610619906130a2565b60408051602880825260608281019093526000919060208201818036833701905050905060005b6014811015612081576000611f7e82601361307c565b611f899060086130f4565b611f949060026131ef565b611fa7906001600160a01b038716613211565b60f81b9050600060108260f81c611fbe9190613225565b60f81b905060008160f81c6010611fd59190613247565b8360f81c611fe39190613263565b60f81b9050611ff18261242b565b85611ffd8660026130f4565b8151811061200d5761200d612cab565b60200101906001600160f81b031916908160001a90535061202d8161242b565b856120398660026130f4565b61204490600161308f565b8151811061205457612054612cab565b60200101906001600160f81b031916908160001a905350505050808061207990612e9e565b915050611f68565b5092915050565b6060816000036120af5750506040805180820190915260018152600360fc1b602082015290565b8160005b81156120d957806120c381612e9e565b91506120d29050600a83613211565b91506120b3565b6000816001600160401b038111156120f3576120f36126c7565b6040519080825280601f01601f19166020018201604052801561211d576020820181803683370190505b5090505b8415611beb5761213260018361307c565b915061213f600a8661327c565b61214a90603061308f565b60f81b81838151811061215f5761215f612cab565b60200101906001600160f81b031916908160001a905350612181600a86613211565b9450612121565b600054610100900460ff166121af5760405162461bcd60e51b815260040161061990613290565b6107de8282612466565b600054610100900460ff166121e05760405162461bcd60e51b815260040161061990613290565b6111126124a6565b6001600160a01b03821661223e5760405162461bcd60e51b815260206004820181905260248201527f4552433732313a206d696e7420746f20746865207a65726f20616464726573736044820152606401610619565b6000818152606760205260409020546001600160a01b0316156122a35760405162461bcd60e51b815260206004820152601c60248201527f4552433732313a20746f6b656e20616c7265616479206d696e746564000000006044820152606401610619565b6001600160a01b03821660009081526068602052604081208054600192906122cc90849061308f565b909155505060008181526067602052604080822080546001600160a01b0319166001600160a01b03861690811790915590518392907fddf252ad1be2c89b69c2b068fc378daa952ba7f163c4a11628f55a4df523b3ef908290a45050565b60006001600160a01b0384163b1561242057604051630a85bd0160e11b81526001600160a01b0385169063150b7a029061236e9033908990889088906004016132db565b6020604051808303816000875af19250505080156123a9575060408051601f3d908101601f191682019092526123a69181019061330e565b60015b612406573d8080156123d7576040519150601f19603f3d011682016040523d82523d6000602084013e6123dc565b606091505b5080516000036123fe5760405162461bcd60e51b8152600401610619906130a2565b805181602001fd5b6001600160e01b031916630a85bd0160e11b149050611beb565b506001949350505050565b6000600a60f883901c10156124525761244960f883901c603061332b565b60f81b92915050565b61244960f883901c605761332b565b919050565b600054610100900460ff1661248d5760405162461bcd60e51b815260040161061990613290565b60656124998382612dc9565b50606661074e8282612dc9565b600054610100900460ff166124cd5760405162461bcd60e51b815260040161061990613290565b61111233611dee565b6040518060a001604052806000815260200160008152602001606081526020016000815260200160006001600160a01b031681525090565b6001600160e01b03198116811461105457600080fd5b60006020828403121561253657600080fd5b81356125418161250e565b9392505050565b60005b8381101561256357818101518382015260200161254b565b50506000910152565b60008151808452612584816020860160208601612548565b601f01601f19169290920160200192915050565b602081526000612541602083018461256c565b6000602082840312156125bd57600080fd5b5035919050565b80356001600160a01b038116811461246157600080fd5b600080604083850312156125ee57600080fd5b6125f7836125c4565b946020939093013593505050565b60008060006060848603121561261a57600080fd5b612623846125c4565b9250612631602085016125c4565b9150604084013590509250925092565b6020815281516020820152602082015160408201526000604083015160a0606084015261267160c084018261256c565b6060850151608085810191909152909401516001600160a01b031660a0909301929092525090919050565b8035801515811461246157600080fd5b6000602082840312156126be57600080fd5b6125418261269c565b634e487b7160e01b600052604160045260246000fd5b604051608081016001600160401b03811182821017156126ff576126ff6126c7565b60405290565b604051601f8201601f191681016001600160401b038111828210171561272d5761272d6126c7565b604052919050565b60006001600160401b0382111561274e5761274e6126c7565b5060051b60200190565b60006001600160401b03821115612771576127716126c7565b50601f01601f191660200190565b600061279261278d84612758565b612705565b90508281528383830111156127a657600080fd5b828260208301376000602084830101529392505050565b600082601f8301126127ce57600080fd5b6125418383356020850161277f565b600082601f8301126127ee57600080fd5b813560206127fe61278d83612735565b82815260059290921b8401810191818101908684111561281d57600080fd5b8286015b848110156128be5780356001600160401b03808211156128415760008081fd5b908801906080828b03601f190181131561285b5760008081fd5b6128636126dd565b8784013581526040808501358481111561287d5760008081fd5b61288b8e8b838901016127bd565b8a84015250606093508385013581830152506128a88285016125c4565b9281019290925250845250918301918301612821565b509695505050505050565b600080604083850312156128dc57600080fd5b82356001600160401b03808211156128f357600080fd5b818501915085601f83011261290757600080fd5b8135602061291761278d83612735565b82815260059290921b8401810191818101908984111561293657600080fd5b948201945b838610156129545785358252948201949082019061293b565b9650508601359250508082111561296a57600080fd5b50612977858286016127dd565b9150509250929050565b60006020828403121561299357600080fd5b81356001600160401b038111156129a957600080fd5b611beb848285016127bd565b6000806000606084860312156129ca57600080fd5b6129d3846125c4565b95602085013595506040909401359392505050565b6000602082840312156129fa57600080fd5b612541826125c4565b600060208284031215612a1557600080fd5b81356001600160401b03811115612a2b57600080fd5b611beb848285016127dd565b60008060408385031215612a4a57600080fd5b612a53836125c4565b9150612a616020840161269c565b90509250929050565b60008060008060808587031215612a8057600080fd5b612a89856125c4565b9350612a97602086016125c4565b92506040850135915060608501356001600160401b03811115612ab957600080fd5b8501601f81018713612aca57600080fd5b612ad98782356020840161277f565b91505092959194509250565b85815284602082015260a060408201526000612b0460a083018661256c565b6060830194909452506001600160a01b03919091166080909101529392505050565b60008060008060808587031215612b3c57600080fd5b84356001600160401b0380821115612b5357600080fd5b612b5f888389016127bd565b95506020870135915080821115612b7557600080fd5b612b81888389016127bd565b9450612b8f604088016125c4565b93506060870135915080821115612ba557600080fd5b50612ad9878288016127bd565b60008060408385031215612bc557600080fd5b612bce836125c4565b9150612a61602084016125c4565b600181811c90821680612bf057607f821691505b602082108103612c1057634e487b7160e01b600052602260045260246000fd5b50919050565b60208082526024908201527f4d656d65746176657273654e46543a2063616c6c6572206973206e6f74206d69604082015263373a32b960e11b606082015260800190565b60208082526031908201527f4552433732313a207472616e736665722063616c6c6572206973206e6f74206f6040820152701ddb995c881b9bdc88185c1c1c9bdd9959607a1b606082015260800190565b634e487b7160e01b600052603260045260246000fd5b6020808252601e908201527f4d656d65746176657273654e46543a206974656d206e6f7420666f756e640000604082015260600190565b6020808252818101527f4f776e61626c653a2063616c6c6572206973206e6f7420746865206f776e6572604082015260600190565b6020808252602e908201527f4d656d65746176657273654e46543a2063616c6c6572206973206e6f7420637260408201526d32b0ba37b91037b91037bbb732b960911b606082015260800190565b601f82111561074e57600081815260208120601f850160051c81016020861015612da25750805b601f850160051c820191505b81811015612dc157828155600101612dae565b505050505050565b81516001600160401b03811115612de257612de26126c7565b612df681612df08454612bdc565b84612d7b565b602080601f831160018114612e2b5760008415612e135750858301515b600019600386901b1c1916600185901b178555612dc1565b600085815260208120601f198616915b82811015612e5a57888601518255948401946001909101908401612e3b565b5085821015612e785787850151600019600388901b60f8161c191681555b5050505050600190811b01905550565b634e487b7160e01b600052601160045260246000fd5b600060018201612eb057612eb0612e88565b5060010190565b6000815180845260208085019450848260051b860182860160005b85811015612f2f5783830389528151608081518552868201518188870152612efc8287018261256c565b604084810151908801526060938401516001600160a01b0316939096019290925250509784019790840190600101612ed2565b5090979650505050505050565b604080825283519082018190526000906020906060840190828701845b82811015612f7557815184529284019290840190600101612f59565b50505083810382850152612f898186612eb7565b9695505050505050565b6020815260006125416020830184612eb7565b600060208284031215612fb857600080fd5b81516001600160401b03811115612fce57600080fd5b8201601f81018413612fdf57600080fd5b8051612fed61278d82612758565b81815285602083850101111561300257600080fd5b613013826020830160208601612548565b95945050505050565b6000845161302e818460208901612548565b61060f60f31b908301908152845161304d816002840160208901612548565b602f60f81b60029290910191820152835161306f816003840160208801612548565b0160030195945050505050565b8181038181111561050c5761050c612e88565b8082018082111561050c5761050c612e88565b60208082526032908201527f4552433732313a207472616e7366657220746f206e6f6e20455243373231526560408201527131b2b4bb32b91034b6b83632b6b2b73a32b960711b606082015260800190565b808202811582820484141761050c5761050c612e88565b600181815b8085111561314657816000190482111561312c5761312c612e88565b8085161561313957918102915b93841c9390800290613110565b509250929050565b60008261315d5750600161050c565b8161316a5750600061050c565b8160018114613180576002811461318a576131a6565b600191505061050c565b60ff84111561319b5761319b612e88565b50506001821b61050c565b5060208310610133831016604e8410600b84101617156131c9575081810a61050c565b6131d3838361310b565b80600019048211156131e7576131e7612e88565b029392505050565b6000612541838361314e565b634e487b7160e01b600052601260045260246000fd5b600082613220576132206131fb565b500490565b600060ff831680613238576132386131fb565b8060ff84160491505092915050565b60ff818116838216029081169081811461208157612081612e88565b60ff828116828216039081111561050c5761050c612e88565b60008261328b5761328b6131fb565b500690565b6020808252602b908201527f496e697469616c697a61626c653a20636f6e7472616374206973206e6f74206960408201526a6e697469616c697a696e6760a81b606082015260800190565b6001600160a01b0385811682528416602082015260408101839052608060608201819052600090612f899083018461256c565b60006020828403121561332057600080fd5b81516125418161250e565b60ff818116838216019081111561050c5761050c612e8856fea26469706673582212200dd0d2528f13834a37d7ee498ff764e612cfe92da0fc7696afced1060d7a6edc64736f6c63430008130033a2646970667358221220eeb1718b92b6685cb37b3f40890c62b05560acb4f9853632eef42b8fb3623ac064736f6c63430008130033",
    "sourcePath": "/data/Projects/mtv/memetaverse-contracts/contracts/nft/MemetaverseNFTFactory.sol",
    "compiler": {
        "name": "solc",
        "version": "0.8.19+commit.7dd6d404"
    },
    "functionHashes": {
        "INIT_CODE_NFT_HASH()": "375170e3",
        "baseURI()": "6c0360eb",
        "collections(uint256)": "fdbda0ec",
        "collectionsLength()": "843f3c7b",
        "create(string,string,(uint256,string,uint256,address)[],string)": "38dfe268",
        "creatingFee()": "9080895f",
        "isCollectionFromFactory(address)": "c0300011",
        "maxCreatingFee()": "ce7fdd11",
        "owner()": "8da5cb5b",
        "quoteToken()": "217a4b70",
        "renounceOwnership()": "715018a6",
        "setBaseURI(string)": "55f804b3",
        "setCreatingFee(uint256)": "d4157bc9",
        "setQuoteToken(address)": "1cfb886d",
        "setTreasury(address)": "f0f44260",
        "transferOwnership(address)": "f2fde38b",
        "treasuryAddr()": "30d9a62a"
    },
    "gasEstimates": {
        "creation": {
            "codeDepositCost": "3690000",
            "executionCost": "infinite",
            "totalCost": "infinite"
        },
        "external": {
            "INIT_CODE_NFT_HASH()": "infinite",
            "baseURI()": "infinite",
            "collections(uint256)": "4713",
            "collectionsLength()": "2315",
            "create(string,string,(uint256,string,uint256,address)[],string)": "infinite",
            "creatingFee()": "2362",
            "isCollectionFromFactory(address)": "2624",
            "maxCreatingFee()": "2317",
            "owner()": "2365",
            "quoteToken()": "2372",
            "renounceOwnership()": "28203",
            "setBaseURI(string)": "infinite",
            "setCreatingFee(uint256)": "27711",
            "setQuoteToken(address)": "27828",
            "setTreasury(address)": "27881",
            "transferOwnership(address)": "28401",
            "treasuryAddr()": "2394"
        }
    }
}