{
    "contractName": "MemetaverseNFTSale",
    "abi": [
        {
            "inputs": [
                {
                    "internalType": "address",
                    "name": "_treasury",
                    "type": "address"
                },
                {
                    "internalType": "address",
                    "name": "_dealToken",
                    "type": "address"
                },
                {
                    "internalType": "address",
                    "name": "_referral",
                    "type": "address"
                }
            ],
            "stateMutability": "nonpayable",
            "type": "constructor"
        },
        {
            "anonymous": false,
            "inputs": [
                {
                    "indexed": false,
                    "internalType": "address",
                    "name": "user",
                    "type": "address"
                },
                {
                    "indexed": true,
                    "internalType": "address",
                    "name": "nft",
                    "type": "address"
                },
                {
                    "indexed": false,
                    "internalType": "uint256",
                    "name": "itemId",
                    "type": "uint256"
                },
                {
                    "indexed": false,
                    "internalType": "uint256",
                    "name": "qty",
                    "type": "uint256"
                },
                {
                    "indexed": false,
                    "internalType": "uint256",
                    "name": "price",
                    "type": "uint256"
                },
                {
                    "indexed": false,
                    "internalType": "uint256",
                    "name": "netPrice",
                    "type": "uint256"
                }
            ],
            "name": "Buy",
            "type": "event"
        },
        {
            "anonymous": false,
            "inputs": [
                {
                    "indexed": false,
                    "internalType": "uint256",
                    "name": "feePercent",
                    "type": "uint256"
                }
            ],
            "name": "FeePercentUpdated",
            "type": "event"
        },
        {
            "anonymous": false,
            "inputs": [
                {
                    "indexed": true,
                    "internalType": "address",
                    "name": "previousOwner",
                    "type": "address"
                },
                {
                    "indexed": true,
                    "internalType": "address",
                    "name": "newOwner",
                    "type": "address"
                }
            ],
            "name": "OwnershipTransferred",
            "type": "event"
        },
        {
            "anonymous": false,
            "inputs": [
                {
                    "indexed": false,
                    "internalType": "address",
                    "name": "referral",
                    "type": "address"
                }
            ],
            "name": "ReferalUpdated",
            "type": "event"
        },
        {
            "anonymous": false,
            "inputs": [
                {
                    "indexed": false,
                    "internalType": "uint256",
                    "name": "newRate",
                    "type": "uint256"
                }
            ],
            "name": "ReferralCommisionRateUpdated",
            "type": "event"
        },
        {
            "anonymous": false,
            "inputs": [
                {
                    "indexed": false,
                    "internalType": "address",
                    "name": "token",
                    "type": "address"
                }
            ],
            "name": "SetDealToken",
            "type": "event"
        },
        {
            "anonymous": false,
            "inputs": [
                {
                    "indexed": false,
                    "internalType": "address",
                    "name": "treasury",
                    "type": "address"
                }
            ],
            "name": "TreasuryUpdated",
            "type": "event"
        },
        {
            "inputs": [
                {
                    "internalType": "address",
                    "name": "_nft",
                    "type": "address"
                },
                {
                    "internalType": "uint256",
                    "name": "_itemId",
                    "type": "uint256"
                },
                {
                    "internalType": "uint256",
                    "name": "_qty",
                    "type": "uint256"
                },
                {
                    "internalType": "address",
                    "name": "_referrer",
                    "type": "address"
                }
            ],
            "name": "buy",
            "outputs": [],
            "stateMutability": "nonpayable",
            "type": "function"
        },
        {
            "inputs": [],
            "name": "dealToken",
            "outputs": [
                {
                    "internalType": "address",
                    "name": "",
                    "type": "address"
                }
            ],
            "stateMutability": "view",
            "type": "function"
        },
        {
            "inputs": [],
            "name": "feePercent",
            "outputs": [
                {
                    "internalType": "uint256",
                    "name": "",
                    "type": "uint256"
                }
            ],
            "stateMutability": "view",
            "type": "function"
        },
        {
            "inputs": [],
            "name": "maxFeePercent",
            "outputs": [
                {
                    "internalType": "uint256",
                    "name": "",
                    "type": "uint256"
                }
            ],
            "stateMutability": "view",
            "type": "function"
        },
        {
            "inputs": [],
            "name": "owner",
            "outputs": [
                {
                    "internalType": "address",
                    "name": "",
                    "type": "address"
                }
            ],
            "stateMutability": "view",
            "type": "function"
        },
        {
            "inputs": [],
            "name": "referral",
            "outputs": [
                {
                    "internalType": "address",
                    "name": "",
                    "type": "address"
                }
            ],
            "stateMutability": "view",
            "type": "function"
        },
        {
            "inputs": [],
            "name": "referralCommisionRate",
            "outputs": [
                {
                    "internalType": "uint256",
                    "name": "",
                    "type": "uint256"
                }
            ],
            "stateMutability": "view",
            "type": "function"
        },
        {
            "inputs": [],
            "name": "renounceOwnership",
            "outputs": [],
            "stateMutability": "nonpayable",
            "type": "function"
        },
        {
            "inputs": [
                {
                    "internalType": "address",
                    "name": "_token",
                    "type": "address"
                }
            ],
            "name": "setDealToken",
            "outputs": [],
            "stateMutability": "nonpayable",
            "type": "function"
        },
        {
            "inputs": [
                {
                    "internalType": "uint256",
                    "name": "_percent",
                    "type": "uint256"
                }
            ],
            "name": "setFeePercent",
            "outputs": [],
            "stateMutability": "nonpayable",
            "type": "function"
        },
        {
            "inputs": [
                {
                    "internalType": "address",
                    "name": "_referral",
                    "type": "address"
                }
            ],
            "name": "setReferral",
            "outputs": [],
            "stateMutability": "nonpayable",
            "type": "function"
        },
        {
            "inputs": [
                {
                    "internalType": "uint256",
                    "name": "_percent",
                    "type": "uint256"
                }
            ],
            "name": "setReferralCommisionRate",
            "outputs": [],
            "stateMutability": "nonpayable",
            "type": "function"
        },
        {
            "inputs": [
                {
                    "internalType": "address",
                    "name": "_treasury",
                    "type": "address"
                }
            ],
            "name": "setTreasury",
            "outputs": [],
            "stateMutability": "nonpayable",
            "type": "function"
        },
        {
            "inputs": [
                {
                    "internalType": "address",
                    "name": "newOwner",
                    "type": "address"
                }
            ],
            "name": "transferOwnership",
            "outputs": [],
            "stateMutability": "nonpayable",
            "type": "function"
        },
        {
            "inputs": [],
            "name": "treasury",
            "outputs": [
                {
                    "internalType": "address",
                    "name": "",
                    "type": "address"
                }
            ],
            "stateMutability": "view",
            "type": "function"
        }
    ],
    "bytecode": "608060405260646004556103e8600655603260075534801561002057600080fd5b506040516200126238038062001262833981016040819052610041916100fc565b61004a33610090565b60018055600280546001600160a01b039485166001600160a01b03199182161790915560038054938516938216939093179092556005805491909316911617905561013f565b600080546001600160a01b038381166001600160a01b0319831681178455604051919092169283917f8be0079c531659141344cd1fd0a4f28419497f9722a3daafe3b4186f6b6457e09190a35050565b80516001600160a01b03811681146100f757600080fd5b919050565b60008060006060848603121561011157600080fd5b61011a846100e0565b9250610128602085016100e0565b9150610136604085016100e0565b90509250925092565b611113806200014f6000396000f3fe608060405234801561001057600080fd5b50600436106100f55760003560e01c80638da5cb5b11610097578063d830a05b11610066578063d830a05b146101e1578063eb1694fd146101ea578063f0f44260146101f3578063f2fde38b1461020657600080fd5b80638da5cb5b146101975780639e5914da146101a8578063d08b43fb146101bb578063d1fc856a146101ce57600080fd5b806361d027b3116100d357806361d027b314610152578063715018a6146101655780637ce3489b1461016d5780637fd6f15c1461018057600080fd5b80631441a5a9146100fa5780633f60b6331461012a5780635280c3ee1461013f575b600080fd5b60055461010d906001600160a01b031681565b6040516001600160a01b0390911681526020015b60405180910390f35b61013d610138366004610d8a565b610219565b005b60035461010d906001600160a01b031681565b60025461010d906001600160a01b031681565b61013d61048c565b61013d61017b366004610dd4565b6104c2565b61018960045481565b604051908152602001610121565b6000546001600160a01b031661010d565b61013d6101b6366004610ded565b61057a565b61013d6101c9366004610ded565b610618565b61013d6101dc366004610dd4565b6106b6565b61018960065481565b61018960075481565b61013d610201366004610ded565b610767565b61013d610214366004610ded565b610805565b6002600154036102705760405162461bcd60e51b815260206004820152601f60248201527f5265656e7472616e637947756172643a207265656e7472616e742063616c6c0060448201526064015b60405180910390fd5b6002600155604051633129e77360e01b8152600481018490526000906001600160a01b03861690633129e77390602401600060405180830381865afa1580156102bd573d6000803e3d6000fd5b505050506040513d6000823e601f3d908101601f191682016040526102e59190810190610ea9565b6060810151909150600080821561039f576102ff856108a0565b6003546001600160a01b03166103158488610952565b9250600061032284610967565b905060006103476127106103416004548861095290919063ffffffff16565b90610a53565b9050801561036a5761036a336002546001600160a01b0386811692911684610a5f565b61037e816103788785610abf565b90610abf565b935061039b3360808901516001600160a01b038616919087610a5f565b5050505b6001600160a01b0388166363f0fafa336040516001600160e01b031960e084901b1681526001600160a01b039091166004820152602481018a905260448101899052606401600060405180830381600087803b1580156103fe57600080fd5b505af1158015610412573d6000803e3d6000fd5b50505050876001600160a01b03167f75a85e7be0265abefef113ee168a0d751385a985c3a37920ae97ae192d2eadb46104483390565b604080516001600160a01b039092168252602082018b90528101899052606081018590526080810184905260a00160405180910390a2505060018055505050505050565b6000546001600160a01b031633146104b65760405162461bcd60e51b815260040161026790610f95565b6104c06000610acb565b565b6000546001600160a01b031633146104ec5760405162461bcd60e51b815260040161026790610f95565b60065481111561053e5760405162461bcd60e51b815260206004820152601e60248201527f4d656d65746176657273654e465450726573616c653a206d61782066656500006044820152606401610267565b60048190556040518181527f64d1887078a96d281ed60dd69ba75bfb6b5cd2cb4c2d2538b2eb7816a4c646ea906020015b60405180910390a150565b6000546001600160a01b031633146105a45760405162461bcd60e51b815260040161026790610f95565b6001600160a01b0381166105ca5760405162461bcd60e51b815260040161026790610fca565b600580546001600160a01b0319166001600160a01b0383169081179091556040519081527ff171f77ae138f8d46c5e893011685aed82d793c2c33067f6d30d15654e26bb349060200161056f565b6000546001600160a01b031633146106425760405162461bcd60e51b815260040161026790610f95565b6001600160a01b0381166106685760405162461bcd60e51b815260040161026790610fca565b600380546001600160a01b0319166001600160a01b0383169081179091556040519081527f0a8dcfa3e3048ad043b17fe68f7988a5a4543752fc5f58a6a16bf21da8535c6d9060200161056f565b6000546001600160a01b031633146106e05760405162461bcd60e51b815260040161026790610f95565b6006548111156107325760405162461bcd60e51b815260206004820152601e60248201527f4d656d65746176657273654e465450726573616c653a206d61782066656500006044820152606401610267565b60078190556040518181527f5544fe17b16f12ea705efbd0146693475bac5b76a932deee1bf109b1d780a10f9060200161056f565b6000546001600160a01b031633146107915760405162461bcd60e51b815260040161026790610f95565b6001600160a01b0381166107b75760405162461bcd60e51b815260040161026790610fca565b600280546001600160a01b0319166001600160a01b0383169081179091556040519081527f7dae230f18360d76a040c81f050aa14eb9d6dc7901b20fc5d855e2a20fe814d19060200161056f565b6000546001600160a01b0316331461082f5760405162461bcd60e51b815260040161026790610f95565b6001600160a01b0381166108945760405162461bcd60e51b815260206004820152602660248201527f4f776e61626c653a206e6577206f776e657220697320746865207a65726f206160448201526564647265737360d01b6064820152608401610267565b61089d81610acb565b50565b6001600160a01b038116158015906108c157506001600160a01b0381163314155b80156108d757506005546001600160a01b031615155b1561089d576005546001600160a01b0316630c7f7b6b336040516001600160e01b031960e084901b1681526001600160a01b0391821660048201529084166024820152604401600060405180830381600087803b15801561093757600080fd5b505af115801561094b573d6000803e3d6000fd5b5050505050565b600061095e8284611003565b90505b92915050565b60008060075411801561098457506005546001600160a01b031615155b15610a4e576005546000906001600160a01b0316634a9fefc7336040516001600160e01b031960e084901b1681526001600160a01b039091166004820152602401602060405180830381865afa1580156109e2573d6000803e3d6000fd5b505050506040513d601f19601f82011682018060405250810190610a06919061101a565b90506001600160a01b03811615610a4c57610a326127106103416007548661095290919063ffffffff16565b9150610a4c336003546001600160a01b0316908385610a5f565b505b919050565b600061095e8284611037565b604080516001600160a01b0385811660248301528416604482015260648082018490528251808303909101815260849091019091526020810180516001600160e01b03166323b872dd60e01b179052610ab9908590610b1b565b50505050565b600061095e8284611059565b600080546001600160a01b038381166001600160a01b0319831681178455604051919092169283917f8be0079c531659141344cd1fd0a4f28419497f9722a3daafe3b4186f6b6457e09190a35050565b6000610b70826040518060400160405280602081526020017f5361666545524332303a206c6f772d6c6576656c2063616c6c206661696c6564815250856001600160a01b0316610bf29092919063ffffffff16565b805190915015610bed5780806020019051810190610b8e919061106c565b610bed5760405162461bcd60e51b815260206004820152602a60248201527f5361666545524332303a204552433230206f7065726174696f6e20646964206e6044820152691bdd081cdd58d8d9595960b21b6064820152608401610267565b505050565b6060610c018484600085610c0b565b90505b9392505050565b606082471015610c6c5760405162461bcd60e51b815260206004820152602660248201527f416464726573733a20696e73756666696369656e742062616c616e636520666f6044820152651c8818d85b1b60d21b6064820152608401610267565b6001600160a01b0385163b610cc35760405162461bcd60e51b815260206004820152601d60248201527f416464726573733a2063616c6c20746f206e6f6e2d636f6e74726163740000006044820152606401610267565b600080866001600160a01b03168587604051610cdf919061108e565b60006040518083038185875af1925050503d8060008114610d1c576040519150601f19603f3d011682016040523d82523d6000602084013e610d21565b606091505b5091509150610d31828286610d3c565b979650505050505050565b60608315610d4b575081610c04565b825115610d5b5782518084602001fd5b8160405162461bcd60e51b815260040161026791906110aa565b6001600160a01b038116811461089d57600080fd5b60008060008060808587031215610da057600080fd5b8435610dab81610d75565b935060208501359250604085013591506060850135610dc981610d75565b939692955090935050565b600060208284031215610de657600080fd5b5035919050565b600060208284031215610dff57600080fd5b8135610c0481610d75565b634e487b7160e01b600052604160045260246000fd5b60405160a0810167ffffffffffffffff81118282101715610e4357610e43610e0a565b60405290565b604051601f8201601f1916810167ffffffffffffffff81118282101715610e7257610e72610e0a565b604052919050565b60005b83811015610e95578181015183820152602001610e7d565b50506000910152565b8051610a4e81610d75565b60006020808385031215610ebc57600080fd5b825167ffffffffffffffff80821115610ed457600080fd5b9084019060a08287031215610ee857600080fd5b610ef0610e20565b825181528383015184820152604083015182811115610f0e57600080fd5b8301601f81018813610f1f57600080fd5b805183811115610f3157610f31610e0a565b610f43601f8201601f19168701610e49565b93508084528886828401011115610f5957600080fd5b610f6881878601888501610e7a565b505081604082015260608301516060820152610f8660808401610e9e565b60808201529695505050505050565b6020808252818101527f4f776e61626c653a2063616c6c6572206973206e6f7420746865206f776e6572604082015260600190565b6020808252600990820152683d32b9379030b2323960b91b604082015260600190565b634e487b7160e01b600052601160045260246000fd5b808202811582820484141761096157610961610fed565b60006020828403121561102c57600080fd5b8151610c0481610d75565b60008261105457634e487b7160e01b600052601260045260246000fd5b500490565b8181038181111561096157610961610fed565b60006020828403121561107e57600080fd5b81518015158114610c0457600080fd5b600082516110a0818460208701610e7a565b9190910192915050565b60208152600082518060208401526110c9816040850160208701610e7a565b601f01601f1916919091016040019291505056fea2646970667358221220390651d5c43d8e4e2f6931149aa9745879e68d91ea187b6861228420e842b4ff64736f6c63430008130033",
    "sourcePath": "/data/Projects/mtv/memetaverse-contracts/contracts/nft/MemetaverseNFTSale.sol",
    "compiler": {
        "name": "solc",
        "version": "0.8.19+commit.7dd6d404"
    },
    "functionHashes": {
        "buy(address,uint256,uint256,address)": "3f60b633",
        "dealToken()": "5280c3ee",
        "feePercent()": "7fd6f15c",
        "maxFeePercent()": "d830a05b",
        "owner()": "8da5cb5b",
        "referral()": "1441a5a9",
        "referralCommisionRate()": "eb1694fd",
        "renounceOwnership()": "715018a6",
        "setDealToken(address)": "d08b43fb",
        "setFeePercent(uint256)": "7ce3489b",
        "setReferral(address)": "9e5914da",
        "setReferralCommisionRate(uint256)": "d1fc856a",
        "setTreasury(address)": "f0f44260",
        "transferOwnership(address)": "f2fde38b",
        "treasury()": "61d027b3"
    },
    "gasEstimates": {
        "creation": {
            "codeDepositCost": "874200",
            "executionCost": "infinite",
            "totalCost": "infinite"
        },
        "external": {
            "buy(address,uint256,uint256,address)": "infinite",
            "dealToken()": "2394",
            "feePercent()": "2384",
            "maxFeePercent()": "2317",
            "owner()": "2343",
            "referral()": "2350",
            "referralCommisionRate()": "2339",
            "renounceOwnership()": "28159",
            "setDealToken(address)": "27872",
            "setFeePercent(uint256)": "27723",
            "setReferral(address)": "27850",
            "setReferralCommisionRate(uint256)": "27756",
            "setTreasury(address)": "27871",
            "transferOwnership(address)": "infinite",
            "treasury()": "2349"
        },
        "internal": {
            "_payReferralCommission(uint256)": "infinite",
            "_recordReferral(address)": "infinite"
        }
    }
}