{
    "contractName": "TestReferral",
    "abi": [
        {
            "inputs": [
                {
                    "internalType": "address",
                    "name": "_user",
                    "type": "address"
                }
            ],
            "name": "getReferrer",
            "outputs": [
                {
                    "internalType": "address",
                    "name": "",
                    "type": "address"
                }
            ],
            "stateMutability": "view",
            "type": "function"
        },
        {
            "inputs": [
                {
                    "internalType": "address",
                    "name": "_user",
                    "type": "address"
                },
                {
                    "internalType": "address",
                    "name": "_referrer",
                    "type": "address"
                }
            ],
            "name": "recordReferral",
            "outputs": [],
            "stateMutability": "nonpayable",
            "type": "function"
        },
        {
            "inputs": [
                {
                    "internalType": "address",
                    "name": "_referrer",
                    "type": "address"
                },
                {
                    "internalType": "uint256",
                    "name": "_commission",
                    "type": "uint256"
                }
            ],
            "name": "recordReferralCommission",
            "outputs": [],
            "stateMutability": "nonpayable",
            "type": "function"
        }
    ],
    "bytecode": "608060405234801561001057600080fd5b506101d3806100206000396000f3fe608060405234801561001057600080fd5b50600436106100415760003560e01c80630c7f7b6b146100465780634a9fefc71461005b578063dc1694b8146100a3575b600080fd5b61005961005436600461011e565b6100b5565b005b610087610069366004610151565b6001600160a01b039081166000908152602081905260409020541690565b6040516001600160a01b03909116815260200160405180910390f35b6100596100b1366004610173565b5050565b6001600160a01b03828116600090815260208190526040902054166100b1576001600160a01b03918216600090815260208190526040902080546001600160a01b03191691909216179055565b80356001600160a01b038116811461011957600080fd5b919050565b6000806040838503121561013157600080fd5b61013a83610102565b915061014860208401610102565b90509250929050565b60006020828403121561016357600080fd5b61016c82610102565b9392505050565b6000806040838503121561018657600080fd5b61018f83610102565b94602093909301359350505056fea2646970667358221220b1ed26187772fe7da9b0089278b6e79821aa344da4a87fa70bcca24634b9006b64736f6c63430008130033",
    "sourcePath": "/data/Projects/mtv/memetaverse-contracts/contracts/test/TestReferral.sol",
    "compiler": {
        "name": "solc",
        "version": "0.8.19+commit.7dd6d404"
    },
    "functionHashes": {
        "getReferrer(address)": "4a9fefc7",
        "recordReferral(address,address)": "0c7f7b6b",
        "recordReferralCommission(address,uint256)": "dc1694b8"
    },
    "gasEstimates": {
        "creation": {
            "codeDepositCost": "93400",
            "executionCost": "141",
            "totalCost": "93541"
        },
        "external": {
            "getReferrer(address)": "2558",
            "recordReferral(address,address)": "infinite",
            "recordReferralCommission(address,uint256)": "337"
        }
    }
}